{"contracts/PromisePulse.sol":{"PromisePulse":{"abi":[{"anonymous":false,"inputs":[{"indexed":true,"internalType":"uint256","name":"promiseId","type":"uint256"},{"indexed":false,"internalType":"string","name":"evidenceCid","type":"string"},{"indexed":false,"internalType":"string","name":"evidenceType","type":"string"}],"name":"EvidenceLinked","type":"event"},{"anonymous":false,"inputs":[{"indexed":true,"internalType":"uint256","name":"promiseId","type":"uint256"},{"indexed":false,"internalType":"bytes32","name":"promiseHash","type":"bytes32"},{"indexed":false,"internalType":"string","name":"category","type":"string"},{"indexed":false,"internalType":"string","name":"region","type":"string"},{"indexed":false,"internalType":"string","name":"sourceCid","type":"string"}],"name":"PromiseRecorded","type":"event"},{"anonymous":false,"inputs":[{"indexed":true,"internalType":"uint256","name":"reviewRoundId","type":"uint256"},{"indexed":true,"internalType":"uint256","name":"promiseId","type":"uint256"},{"indexed":false,"internalType":"string","name":"triggerCid","type":"string"},{"indexed":false,"internalType":"uint256","name":"endTime","type":"uint256"}],"name":"ReviewRoundOpened","type":"event"},{"anonymous":false,"inputs":[{"indexed":true,"internalType":"uint256","name":"promiseId","type":"uint256"},{"indexed":false,"internalType":"uint8","name":"status","type":"uint8"}],"name":"StatusUpdated","type":"event"},{"anonymous":false,"inputs":[{"indexed":true,"internalType":"uint256","name":"reviewRoundId","type":"uint256"},{"indexed":true,"internalType":"address","name":"voter","type":"address"},{"indexed":false,"internalType":"uint8","name":"voteOption","type":"uint8"}],"name":"VoteCast","type":"event"},{"inputs":[],"name":"DONE","outputs":[{"internalType":"uint8","name":"","type":"uint8"}],"stateMutability":"view","type":"function"},{"inputs":[],"name":"IN_PROGRESS","outputs":[{"internalType":"uint8","name":"","type":"uint8"}],"stateMutability":"view","type":"function"},{"inputs":[],"name":"NOT_SURE","outputs":[{"internalType":"uint8","name":"","type":"uint8"}],"stateMutability":"view","type":"function"},{"inputs":[],"name":"NOT_VISIBLE","outputs":[{"internalType":"uint8","name":"","type":"uint8"}],"stateMutability":"view","type":"function"},{"inputs":[],"name":"PARTIALLY_DONE","outputs":[{"internalType":"uint8","name":"","type":"uint8"}],"stateMutability":"view","type":"function"},{"inputs":[{"internalType":"uint256","name":"promiseId","type":"uint256"},{"internalType":"string","name":"evidenceCid","type":"string"},{"internalType":"string","name":"evidenceType","type":"string"}],"name":"addEvidence","outputs":[],"stateMutability":"nonpayable","type":"function"},{"inputs":[{"internalType":"bytes32","name":"promiseHash","type":"bytes32"},{"internalType":"string","name":"category","type":"string"},{"internalType":"string","name":"region","type":"string"},{"internalType":"string","name":"sourceCid","type":"string"}],"name":"addPromise","outputs":[{"internalType":"uint256","name":"","type":"uint256"}],"stateMutability":"nonpayable","type":"function"},{"inputs":[{"internalType":"uint256","name":"reviewRoundId","type":"uint256"},{"internalType":"uint8","name":"voteOption","type":"uint8"}],"name":"castVote","outputs":[],"stateMutability":"nonpayable","type":"function"},{"inputs":[{"internalType":"uint256","name":"reviewRoundId","type":"uint256"}],"name":"closeRound","outputs":[],"stateMutability":"nonpayable","type":"function"},{"inputs":[{"internalType":"uint256","name":"","type":"uint256"},{"internalType":"address","name":"","type":"address"}],"name":"hasVoted","outputs":[{"internalType":"bool","name":"","type":"bool"}],"stateMutability":"view","type":"function"},{"inputs":[],"name":"nextPromiseId","outputs":[{"internalType":"uint256","name":"","type":"uint256"}],"stateMutability":"view","type":"function"},{"inputs":[],"name":"nextReviewRoundId","outputs":[{"internalType":"uint256","name":"","type":"uint256"}],"stateMutability":"view","type":"function"},{"inputs":[{"internalType":"uint256","name":"promiseId","type":"uint256"},{"internalType":"string","name":"triggerCid","type":"string"},{"internalType":"uint256","name":"endTime","type":"uint256"}],"name":"openReviewRound","outputs":[{"internalType":"uint256","name":"","type":"uint256"}],"stateMutability":"nonpayable","type":"function"},{"inputs":[{"internalType":"uint256","name":"","type":"uint256"}],"name":"promises","outputs":[{"internalType":"bytes32","name":"promiseHash","type":"bytes32"},{"internalType":"string","name":"category","type":"string"},{"internalType":"string","name":"region","type":"string"},{"internalType":"string","name":"sourceCid","type":"string"},{"internalType":"uint256","name":"createdAt","type":"uint256"}],"stateMutability":"view","type":"function"},{"inputs":[{"internalType":"uint256","name":"","type":"uint256"}],"name":"reviewRounds","outputs":[{"internalType":"uint256","name":"promiseId","type":"uint256"},{"internalType":"string","name":"triggerCid","type":"string"},{"internalType":"uint256","name":"endTime","type":"uint256"},{"internalType":"bool","name":"isOpen","type":"bool"}],"stateMutability":"view","type":"function"},{"inputs":[{"internalType":"uint256","name":"promiseId","type":"uint256"},{"internalType":"uint8","name":"status","type":"uint8"}],"name":"updateStatus","outputs":[],"stateMutability":"nonpayable","type":"function"},{"inputs":[{"internalType":"uint256","name":"","type":"uint256"},{"internalType":"uint8","name":"","type":"uint8"}],"name":"voteCounts","outputs":[{"internalType":"uint256","name":"","type":"uint256"}],"stateMutability":"view","type":"function"}],"evm":{"bytecode":{"linkReferences":{},"object":"608060405260016000556001805534801561001957600080fd5b50611c2f806100296000396000f3fe608060405234801561001057600080fd5b506004361061010b5760003560e01c806373e3ad5a116100a2578063a94ad31411610071578063a94ad314146102aa578063c605ff98146102dd578063c83a09c01461030d578063c8a33da11461033d578063f3aaad301461035b5761010b565b806373e3ad5a1461022457806388e01a981461025457806390828c7814610270578063a4f568301461028e5761010b565b806343859632116100de578063438596321461019c578063549cde05146101cc57806356781388146101ea578063600f150c146102065761010b565b80630bbe62e4146101105780631d868dcc1461012e5780631f06c8591461014c5780633a1b3d3114610180575b600080fd5b610118610379565b6040516101259190610ec6565b60405180910390f35b61013661037e565b6040516101439190610ec6565b60405180910390f35b61016660048036038101906101619190610f21565b610383565b604051610177959493929190611006565b60405180910390f35b61019a6004803603810190610195919061109a565b610551565b005b6101b660048036038101906101b19190611138565b610634565b6040516101c39190611193565b60405180910390f35b6101d4610663565b6040516101e19190610ec6565b60405180910390f35b61020460048036038101906101ff919061109a565b610668565b005b61020e610949565b60405161021b9190610ec6565b60405180910390f35b61023e60048036038101906102399190611213565b61094e565b60405161024b9190611287565b60405180910390f35b61026e60048036038101906102699190610f21565b610acb565b005b610278610b4d565b6040516102859190611287565b60405180910390f35b6102a860048036038101906102a391906112a2565b610b53565b005b6102c460048036038101906102bf9190610f21565b610be8565b6040516102d49493929190611337565b60405180910390f35b6102f760048036038101906102f291906113af565b610cad565b6040516103049190611287565b60405180910390f35b6103276004803603810190610322919061109a565b610e7a565b6040516103349190611287565b60405180910390f35b610345610e9f565b6040516103529190611287565b60405180910390f35b610363610ea5565b6040516103709190610ec6565b60405180910390f35b600381565b600281565b60026020528060005260406000206000915090508060000154908060010180546103ac906114a7565b80601f01602080910402602001604051908101604052809291908181526020018280546103d8906114a7565b80156104255780601f106103fa57610100808354040283529160200191610425565b820191906000526020600020905b81548152906001019060200180831161040857829003601f168201915b50505050509080600201805461043a906114a7565b80601f0160208091040260200160405190810160405280929190818152602001828054610466906114a7565b80156104b35780601f10610488576101008083540402835291602001916104b3565b820191906000526020600020905b81548152906001019060200180831161049657829003601f168201915b5050505050908060030180546104c8906114a7565b80601f01602080910402602001604051908101604052809291908181526020018280546104f4906114a7565b80156105415780601f1061051657610100808354040283529160200191610541565b820191906000526020600020905b81548152906001019060200180831161052457829003601f168201915b5050505050908060040154905085565b600082118015610562575060005482105b6105a1576040517f08c379a000000000000000000000000000000000000000000000000000000000815260040161059890611524565b60405180910390fd5b60008160ff16101580156105b9575060048160ff1611155b6105f8576040517f08c379a00000000000000000000000000000000000000000000000000000000081526004016105ef90611590565b60405180910390fd5b817f2da7b23ca63c1eb969eee5fae4acb98186abecf5358b0354a82a5183ebca6b2a826040516106289190610ec6565b60405180910390a25050565b60056020528160005260406000206020528060005260406000206000915091509054906101000a900460ff1681565b600081565b600082118015610679575060015482105b6106b8576040517f08c379a00000000000000000000000000000000000000000000000000000000081526004016106af906115fc565b60405180910390fd5b60006003600084815260200190815260200160002090508060030160009054906101000a900460ff16610720576040517f08c379a000000000000000000000000000000000000000000000000000000000815260040161071790611668565b60405180910390fd5b8060020154421115610767576040517f08c379a000000000000000000000000000000000000000000000000000000000815260040161075e906116d4565b60405180910390fd5b60048260ff1611156107ae576040517f08c379a00000000000000000000000000000000000000000000000000000000081526004016107a590611740565b60405180910390fd5b6005600084815260200190815260200160002060003373ffffffffffffffffffffffffffffffffffffffff1673ffffffffffffffffffffffffffffffffffffffff16815260200190815260200160002060009054906101000a900460ff161561084c576040517f08c379a0000000000000000000000000000000000000000000000000000000008152600401610843906117ac565b60405180910390fd5b60016005600085815260200190815260200160002060003373ffffffffffffffffffffffffffffffffffffffff1673ffffffffffffffffffffffffffffffffffffffff16815260200190815260200160002060006101000a81548160ff0219169083151502179055506004600084815260200190815260200160002060008360ff1660ff16815260200190815260200160002060008154809291906108f0906117fb565b91905055503373ffffffffffffffffffffffffffffffffffffffff16837feba4866100b822f0f391e610e7edfab790b9e8766c0012733c26b2f1858e8dd78460405161093c9190610ec6565b60405180910390a3505050565b600181565b60008085118015610960575060005485105b61099f576040517f08c379a000000000000000000000000000000000000000000000000000000000815260040161099690611524565b60405180910390fd5b6000600160008154809291906109b4906117fb565b919050559050604051806080016040528087815260200186868080601f016020809104026020016040519081016040528093929190818152602001838380828437600081840152601f19601f8201169050808301925050505050505081526020018481526020016001151581525060036000838152602001908152602001600020600082015181600001556020820151816001019081610a549190611a1e565b506040820151816002015560608201518160030160006101000a81548160ff02191690831515021790555090505085817fb54b34c83ec6d2e03a59c92f0e87c8dca8c17483de7caf76545917d0d5660c28878787604051610ab793929190611b2c565b60405180910390a380915050949350505050565b600081118015610adc575060015481105b610b1b576040517f08c379a0000000000000000000000000000000000000000000000000000000008152600401610b12906115fc565b60405180910390fd5b60006003600083815260200190815260200160002060030160006101000a81548160ff02191690831515021790555050565b60005481565b600085118015610b64575060005485105b610ba3576040517f08c379a0000000000000000000000000000000000000000000000000000000008152600401610b9a90611524565b60405180910390fd5b847fb92c612969b442f1471a1dff544c3bcbddbe444e889beac5f62732d372ad81db85858585604051610bd99493929190611b5e565b60405180910390a25050505050565b6003602052806000526040600020600091509050806000015490806001018054610c11906114a7565b80601f0160208091040260200160405190810160405280929190818152602001828054610c3d906114a7565b8015610c8a5780601f10610c5f57610100808354040283529160200191610c8a565b820191906000526020600020905b815481529060010190602001808311610c6d57829003601f168201915b5050505050908060020154908060030160009054906101000a900460ff16905084565b600080600080815480929190610cc2906117fb565b9190505590506040518060a001604052808a815260200189898080601f016020809104026020016040519081016040528093929190818152602001838380828437600081840152601f19601f82011690508083019250505050505050815260200187878080601f016020809104026020016040519081016040528093929190818152602001838380828437600081840152601f19601f82011690508083019250505050505050815260200185858080601f016020809104026020016040519081016040528093929190818152602001838380828437600081840152601f19601f8201169050808301925050505050505081526020014281525060026000838152602001908152602001600020600082015181600001556020820151816001019081610ded9190611a1e565b506040820151816002019081610e039190611a1e565b506060820151816003019081610e199190611a1e565b5060808201518160040155905050807f949784da28e3f5675592f9c6bd64128cabb3a065beec7dfa21f49400f320ad3e8a8a8a8a8a8a8a604051610e639796959493929190611b99565b60405180910390a280915050979650505050505050565b6004602052816000526040600020602052806000526040600020600091509150505481565b60015481565b600481565b600060ff82169050919050565b610ec081610eaa565b82525050565b6000602082019050610edb6000830184610eb7565b92915050565b600080fd5b600080fd5b6000819050919050565b610efe81610eeb565b8114610f0957600080fd5b50565b600081359050610f1b81610ef5565b92915050565b600060208284031215610f3757610f36610ee1565b5b6000610f4584828501610f0c565b91505092915050565b6000819050919050565b610f6181610f4e565b82525050565b600081519050919050565b600082825260208201905092915050565b60005b83811015610fa1578082015181840152602081019050610f86565b60008484015250505050565b6000601f19601f8301169050919050565b6000610fc982610f67565b610fd38185610f72565b9350610fe3818560208601610f83565b610fec81610fad565b840191505092915050565b61100081610eeb565b82525050565b600060a08201905061101b6000830188610f58565b818103602083015261102d8187610fbe565b905081810360408301526110418186610fbe565b905081810360608301526110558185610fbe565b90506110646080830184610ff7565b9695505050505050565b61107781610eaa565b811461108257600080fd5b50565b6000813590506110948161106e565b92915050565b600080604083850312156110b1576110b0610ee1565b5b60006110bf85828601610f0c565b92505060206110d085828601611085565b9150509250929050565b600073ffffffffffffffffffffffffffffffffffffffff82169050919050565b6000611105826110da565b9050919050565b611115816110fa565b811461112057600080fd5b50565b6000813590506111328161110c565b92915050565b6000806040838503121561114f5761114e610ee1565b5b600061115d85828601610f0c565b925050602061116e85828601611123565b9150509250929050565b60008115159050919050565b61118d81611178565b82525050565b60006020820190506111a86000830184611184565b92915050565b600080fd5b600080fd5b600080fd5b60008083601f8401126111d3576111d26111ae565b5b8235905067ffffffffffffffff8111156111f0576111ef6111b3565b5b60208301915083600182028301111561120c5761120b6111b8565b5b9250929050565b6000806000806060858703121561122d5761122c610ee1565b5b600061123b87828801610f0c565b945050602085013567ffffffffffffffff81111561125c5761125b610ee6565b5b611268878288016111bd565b9350935050604061127b87828801610f0c565b91505092959194509250565b600060208201905061129c6000830184610ff7565b92915050565b6000806000806000606086880312156112be576112bd610ee1565b5b60006112cc88828901610f0c565b955050602086013567ffffffffffffffff8111156112ed576112ec610ee6565b5b6112f9888289016111bd565b9450945050604086013567ffffffffffffffff81111561131c5761131b610ee6565b5b611328888289016111bd565b92509250509295509295909350565b600060808201905061134c6000830187610ff7565b818103602083015261135e8186610fbe565b905061136d6040830185610ff7565b61137a6060830184611184565b95945050505050565b61138c81610f4e565b811461139757600080fd5b50565b6000813590506113a981611383565b92915050565b60008060008060008060006080888a0312156113ce576113cd610ee1565b5b60006113dc8a828b0161139a565b975050602088013567ffffffffffffffff8111156113fd576113fc610ee6565b5b6114098a828b016111bd565b9650965050604088013567ffffffffffffffff81111561142c5761142b610ee6565b5b6114388a828b016111bd565b9450945050606088013567ffffffffffffffff81111561145b5761145a610ee6565b5b6114678a828b016111bd565b925092505092959891949750929550565b7f4e487b7100000000000000000000000000000000000000000000000000000000600052602260045260246000fd5b600060028204905060018216806114bf57607f821691505b6020821081036114d2576114d1611478565b5b50919050565b7f496e76616c69642070726f6d6973650000000000000000000000000000000000600082015250565b600061150e600f83610f72565b9150611519826114d8565b602082019050919050565b6000602082019050818103600083015261153d81611501565b9050919050565b7f496e76616c696420737461747573000000000000000000000000000000000000600082015250565b600061157a600e83610f72565b915061158582611544565b602082019050919050565b600060208201905081810360008301526115a98161156d565b9050919050565b7f496e76616c696420726f756e6400000000000000000000000000000000000000600082015250565b60006115e6600d83610f72565b91506115f1826115b0565b602082019050919050565b60006020820190508181036000830152611615816115d9565b9050919050565b7f526f756e6420636c6f7365640000000000000000000000000000000000000000600082015250565b6000611652600c83610f72565b915061165d8261161c565b602082019050919050565b6000602082019050818103600083015261168181611645565b9050919050565b7f526f756e64206578706972656400000000000000000000000000000000000000600082015250565b60006116be600d83610f72565b91506116c982611688565b602082019050919050565b600060208201905081810360008301526116ed816116b1565b9050919050565b7f496e76616c696420766f7465206f7074696f6e00000000000000000000000000600082015250565b600061172a601383610f72565b9150611735826116f4565b602082019050919050565b600060208201905081810360008301526117598161171d565b9050919050565b7f416c726561647920766f74656400000000000000000000000000000000000000600082015250565b6000611796600d83610f72565b91506117a182611760565b602082019050919050565b600060208201905081810360008301526117c581611789565b9050919050565b7f4e487b7100000000000000000000000000000000000000000000000000000000600052601160045260246000fd5b600061180682610eeb565b91507fffffffffffffffffffffffffffffffffffffffffffffffffffffffffffffffff8203611838576118376117cc565b5b600182019050919050565b7f4e487b7100000000000000000000000000000000000000000000000000000000600052604160045260246000fd5b60008190508160005260206000209050919050565b60006020601f8301049050919050565b600082821b905092915050565b6000600883026118d47fffffffffffffffffffffffffffffffffffffffffffffffffffffffffffffffff82611897565b6118de8683611897565b95508019841693508086168417925050509392505050565b6000819050919050565b600061191b61191661191184610eeb565b6118f6565b610eeb565b9050919050565b6000819050919050565b61193583611900565b61194961194182611922565b8484546118a4565b825550505050565b600090565b61195e611951565b61196981848461192c565b505050565b5b8181101561198d57611982600082611956565b60018101905061196f565b5050565b601f8211156119d2576119a381611872565b6119ac84611887565b810160208510156119bb578190505b6119cf6119c785611887565b83018261196e565b50505b505050565b600082821c905092915050565b60006119f5600019846008026119d7565b1980831691505092915050565b6000611a0e83836119e4565b9150826002028217905092915050565b611a2782610f67565b67ffffffffffffffff811115611a4057611a3f611843565b5b611a4a82546114a7565b611a55828285611991565b600060209050601f831160018114611a885760008415611a76578287015190505b611a808582611a02565b865550611ae8565b601f198416611a9686611872565b60005b82811015611abe57848901518255600182019150602085019450602081019050611a99565b86831015611adb5784890151611ad7601f8916826119e4565b8355505b6001600288020188555050505b505050505050565b82818337600083830152505050565b6000611b0b8385610f72565b9350611b18838584611af0565b611b2183610fad565b840190509392505050565b60006040820190508181036000830152611b47818587611aff565b9050611b566020830184610ff7565b949350505050565b60006040820190508181036000830152611b79818688611aff565b90508181036020830152611b8e818486611aff565b905095945050505050565b6000608082019050611bae600083018a610f58565b8181036020830152611bc181888a611aff565b90508181036040830152611bd6818688611aff565b90508181036060830152611beb818486611aff565b90509897505050505050505056fea26469706673582212209f3080cf36b1d9933186145584a294a4f35b65de87e40ef296e47a90c544570464736f6c63430008140033","opcodes":"PUSH1 0x80 PUSH1 0x40 MSTORE PUSH1 0x1 PUSH1 0x0 SSTORE PUSH1 0x1 DUP1 SSTORE CALLVALUE DUP1 ISZERO PUSH2 0x19 JUMPI PUSH1 0x0 DUP1 REVERT JUMPDEST POP PUSH2 0x1C2F DUP1 PUSH2 0x29 PUSH1 0x0 CODECOPY PUSH1 0x0 RETURN INVALID PUSH1 0x80 PUSH1 0x40 MSTORE CALLVALUE DUP1 ISZERO PUSH2 0x10 JUMPI PUSH1 0x0 DUP1 REVERT JUMPDEST POP PUSH1 0x4 CALLDATASIZE LT PUSH2 0x10B JUMPI PUSH1 0x0 CALLDATALOAD PUSH1 0xE0 SHR DUP1 PUSH4 0x73E3AD5A GT PUSH2 0xA2 JUMPI DUP1 PUSH4 0xA94AD314 GT PUSH2 0x71 JUMPI DUP1 PUSH4 0xA94AD314 EQ PUSH2 0x2AA JUMPI DUP1 PUSH4 0xC605FF98 EQ PUSH2 0x2DD JUMPI DUP1 PUSH4 0xC83A09C0 EQ PUSH2 0x30D JUMPI DUP1 PUSH4 0xC8A33DA1 EQ PUSH2 0x33D JUMPI DUP1 PUSH4 0xF3AAAD30 EQ PUSH2 0x35B JUMPI PUSH2 0x10B JUMP JUMPDEST DUP1 PUSH4 0x73E3AD5A EQ PUSH2 0x224 JUMPI DUP1 PUSH4 0x88E01A98 EQ PUSH2 0x254 JUMPI DUP1 PUSH4 0x90828C78 EQ PUSH2 0x270 JUMPI DUP1 PUSH4 0xA4F56830 EQ PUSH2 0x28E JUMPI PUSH2 0x10B JUMP JUMPDEST DUP1 PUSH4 0x43859632 GT PUSH2 0xDE JUMPI DUP1 PUSH4 0x43859632 EQ PUSH2 0x19C JUMPI DUP1 PUSH4 0x549CDE05 EQ PUSH2 0x1CC JUMPI DUP1 PUSH4 0x56781388 EQ PUSH2 0x1EA JUMPI DUP1 PUSH4 0x600F150C EQ PUSH2 0x206 JUMPI PUSH2 0x10B JUMP JUMPDEST DUP1 PUSH4 0xBBE62E4 EQ PUSH2 0x110 JUMPI DUP1 PUSH4 0x1D868DCC EQ PUSH2 0x12E JUMPI DUP1 PUSH4 0x1F06C859 EQ PUSH2 0x14C JUMPI DUP1 PUSH4 0x3A1B3D31 EQ PUSH2 0x180 JUMPI JUMPDEST PUSH1 0x0 DUP1 REVERT JUMPDEST PUSH2 0x118 PUSH2 0x379 JUMP JUMPDEST PUSH1 0x40 MLOAD PUSH2 0x125 SWAP2 SWAP1 PUSH2 0xEC6 JUMP JUMPDEST PUSH1 0x40 MLOAD DUP1 SWAP2 SUB SWAP1 RETURN JUMPDEST PUSH2 0x136 PUSH2 0x37E JUMP JUMPDEST PUSH1 0x40 MLOAD PUSH2 0x143 SWAP2 SWAP1 PUSH2 0xEC6 JUMP JUMPDEST PUSH1 0x40 MLOAD DUP1 SWAP2 SUB SWAP1 RETURN JUMPDEST PUSH2 0x166 PUSH1 0x4 DUP1 CALLDATASIZE SUB DUP2 ADD SWAP1 PUSH2 0x161 SWAP2 SWAP1 PUSH2 0xF21 JUMP JUMPDEST PUSH2 0x383 JUMP JUMPDEST PUSH1 0x40 MLOAD PUSH2 0x177 SWAP6 SWAP5 SWAP4 SWAP3 SWAP2 SWAP1 PUSH2 0x1006 JUMP JUMPDEST PUSH1 0x40 MLOAD DUP1 SWAP2 SUB SWAP1 RETURN JUMPDEST PUSH2 0x19A PUSH1 0x4 DUP1 CALLDATASIZE SUB DUP2 ADD SWAP1 PUSH2 0x195 SWAP2 SWAP1 PUSH2 0x109A JUMP JUMPDEST PUSH2 0x551 JUMP JUMPDEST STOP JUMPDEST PUSH2 0x1B6 PUSH1 0x4 DUP1 CALLDATASIZE SUB DUP2 ADD SWAP1 PUSH2 0x1B1 SWAP2 SWAP1 PUSH2 0x1138 JUMP JUMPDEST PUSH2 0x634 JUMP JUMPDEST PUSH1 0x40 MLOAD PUSH2 0x1C3 SWAP2 SWAP1 PUSH2 0x1193 JUMP JUMPDEST PUSH1 0x40 MLOAD DUP1 SWAP2 SUB SWAP1 RETURN JUMPDEST PUSH2 0x1D4 PUSH2 0x663 JUMP JUMPDEST PUSH1 0x40 MLOAD PUSH2 0x1E1 SWAP2 SWAP1 PUSH2 0xEC6 JUMP JUMPDEST PUSH1 0x40 MLOAD DUP1 SWAP2 SUB SWAP1 RETURN JUMPDEST PUSH2 0x204 PUSH1 0x4 DUP1 CALLDATASIZE SUB DUP2 ADD SWAP1 PUSH2 0x1FF SWAP2 SWAP1 PUSH2 0x109A JUMP JUMPDEST PUSH2 0x668 JUMP JUMPDEST STOP JUMPDEST PUSH2 0x20E PUSH2 0x949 JUMP JUMPDEST PUSH1 0x40 MLOAD PUSH2 0x21B SWAP2 SWAP1 PUSH2 0xEC6 JUMP JUMPDEST PUSH1 0x40 MLOAD DUP1 SWAP2 SUB SWAP1 RETURN JUMPDEST PUSH2 0x23E PUSH1 0x4 DUP1 CALLDATASIZE SUB DUP2 ADD SWAP1 PUSH2 0x239 SWAP2 SWAP1 PUSH2 0x1213 JUMP JUMPDEST PUSH2 0x94E JUMP JUMPDEST PUSH1 0x40 MLOAD PUSH2 0x24B SWAP2 SWAP1 PUSH2 0x1287 JUMP JUMPDEST PUSH1 0x40 MLOAD DUP1 SWAP2 SUB SWAP1 RETURN JUMPDEST PUSH2 0x26E PUSH1 0x4 DUP1 CALLDATASIZE SUB DUP2 ADD SWAP1 PUSH2 0x269 SWAP2 SWAP1 PUSH2 0xF21 JUMP JUMPDEST PUSH2 0xACB JUMP JUMPDEST STOP JUMPDEST PUSH2 0x278 PUSH2 0xB4D JUMP JUMPDEST PUSH1 0x40 MLOAD PUSH2 0x285 SWAP2 SWAP1 PUSH2 0x1287 JUMP JUMPDEST PUSH1 0x40 MLOAD DUP1 SWAP2 SUB SWAP1 RETURN JUMPDEST PUSH2 0x2A8 PUSH1 0x4 DUP1 CALLDATASIZE SUB DUP2 ADD SWAP1 PUSH2 0x2A3 SWAP2 SWAP1 PUSH2 0x12A2 JUMP JUMPDEST PUSH2 0xB53 JUMP JUMPDEST STOP JUMPDEST PUSH2 0x2C4 PUSH1 0x4 DUP1 CALLDATASIZE SUB DUP2 ADD SWAP1 PUSH2 0x2BF SWAP2 SWAP1 PUSH2 0xF21 JUMP JUMPDEST PUSH2 0xBE8 JUMP JUMPDEST PUSH1 0x40 MLOAD PUSH2 0x2D4 SWAP5 SWAP4 SWAP3 SWAP2 SWAP1 PUSH2 0x1337 JUMP JUMPDEST PUSH1 0x40 MLOAD DUP1 SWAP2 SUB SWAP1 RETURN JUMPDEST PUSH2 0x2F7 PUSH1 0x4 DUP1 CALLDATASIZE SUB DUP2 ADD SWAP1 PUSH2 0x2F2 SWAP2 SWAP1 PUSH2 0x13AF JUMP JUMPDEST PUSH2 0xCAD JUMP JUMPDEST PUSH1 0x40 MLOAD PUSH2 0x304 SWAP2 SWAP1 PUSH2 0x1287 JUMP JUMPDEST PUSH1 0x40 MLOAD DUP1 SWAP2 SUB SWAP1 RETURN JUMPDEST PUSH2 0x327 PUSH1 0x4 DUP1 CALLDATASIZE SUB DUP2 ADD SWAP1 PUSH2 0x322 SWAP2 SWAP1 PUSH2 0x109A JUMP JUMPDEST PUSH2 0xE7A JUMP JUMPDEST PUSH1 0x40 MLOAD PUSH2 0x334 SWAP2 SWAP1 PUSH2 0x1287 JUMP JUMPDEST PUSH1 0x40 MLOAD DUP1 SWAP2 SUB SWAP1 RETURN JUMPDEST PUSH2 0x345 PUSH2 0xE9F JUMP JUMPDEST PUSH1 0x40 MLOAD PUSH2 0x352 SWAP2 SWAP1 PUSH2 0x1287 JUMP JUMPDEST PUSH1 0x40 MLOAD DUP1 SWAP2 SUB SWAP1 RETURN JUMPDEST PUSH2 0x363 PUSH2 0xEA5 JUMP JUMPDEST PUSH1 0x40 MLOAD PUSH2 0x370 SWAP2 SWAP1 PUSH2 0xEC6 JUMP JUMPDEST PUSH1 0x40 MLOAD DUP1 SWAP2 SUB SWAP1 RETURN JUMPDEST PUSH1 0x3 DUP2 JUMP JUMPDEST PUSH1 0x2 DUP2 JUMP JUMPDEST PUSH1 0x2 PUSH1 0x20 MSTORE DUP1 PUSH1 0x0 MSTORE PUSH1 0x40 PUSH1 0x0 KECCAK256 PUSH1 0x0 SWAP2 POP SWAP1 POP DUP1 PUSH1 0x0 ADD SLOAD SWAP1 DUP1 PUSH1 0x1 ADD DUP1 SLOAD PUSH2 0x3AC SWAP1 PUSH2 0x14A7 JUMP JUMPDEST DUP1 PUSH1 0x1F ADD PUSH1 0x20 DUP1 SWAP2 DIV MUL PUSH1 0x20 ADD PUSH1 0x40 MLOAD SWAP1 DUP2 ADD PUSH1 0x40 MSTORE DUP1 SWAP3 SWAP2 SWAP1 DUP2 DUP2 MSTORE PUSH1 0x20 ADD DUP3 DUP1 SLOAD PUSH2 0x3D8 SWAP1 PUSH2 0x14A7 JUMP JUMPDEST DUP1 ISZERO PUSH2 0x425 JUMPI DUP1 PUSH1 0x1F LT PUSH2 0x3FA JUMPI PUSH2 0x100 DUP1 DUP4 SLOAD DIV MUL DUP4 MSTORE SWAP2 PUSH1 0x20 ADD SWAP2 PUSH2 0x425 JUMP JUMPDEST DUP3 ADD SWAP2 SWAP1 PUSH1 0x0 MSTORE PUSH1 0x20 PUSH1 0x0 KECCAK256 SWAP1 JUMPDEST DUP2 SLOAD DUP2 MSTORE SWAP1 PUSH1 0x1 ADD SWAP1 PUSH1 0x20 ADD DUP1 DUP4 GT PUSH2 0x408 JUMPI DUP3 SWAP1 SUB PUSH1 0x1F AND DUP3 ADD SWAP2 JUMPDEST POP POP POP POP POP SWAP1 DUP1 PUSH1 0x2 ADD DUP1 SLOAD PUSH2 0x43A SWAP1 PUSH2 0x14A7 JUMP JUMPDEST DUP1 PUSH1 0x1F ADD PUSH1 0x20 DUP1 SWAP2 DIV MUL PUSH1 0x20 ADD PUSH1 0x40 MLOAD SWAP1 DUP2 ADD PUSH1 0x40 MSTORE DUP1 SWAP3 SWAP2 SWAP1 DUP2 DUP2 MSTORE PUSH1 0x20 ADD DUP3 DUP1 SLOAD PUSH2 0x466 SWAP1 PUSH2 0x14A7 JUMP JUMPDEST DUP1 ISZERO PUSH2 0x4B3 JUMPI DUP1 PUSH1 0x1F LT PUSH2 0x488 JUMPI PUSH2 0x100 DUP1 DUP4 SLOAD DIV MUL DUP4 MSTORE SWAP2 PUSH1 0x20 ADD SWAP2 PUSH2 0x4B3 JUMP JUMPDEST DUP3 ADD SWAP2 SWAP1 PUSH1 0x0 MSTORE PUSH1 0x20 PUSH1 0x0 KECCAK256 SWAP1 JUMPDEST DUP2 SLOAD DUP2 MSTORE SWAP1 PUSH1 0x1 ADD SWAP1 PUSH1 0x20 ADD DUP1 DUP4 GT PUSH2 0x496 JUMPI DUP3 SWAP1 SUB PUSH1 0x1F AND DUP3 ADD SWAP2 JUMPDEST POP POP POP POP POP SWAP1 DUP1 PUSH1 0x3 ADD DUP1 SLOAD PUSH2 0x4C8 SWAP1 PUSH2 0x14A7 JUMP JUMPDEST DUP1 PUSH1 0x1F ADD PUSH1 0x20 DUP1 SWAP2 DIV MUL PUSH1 0x20 ADD PUSH1 0x40 MLOAD SWAP1 DUP2 ADD PUSH1 0x40 MSTORE DUP1 SWAP3 SWAP2 SWAP1 DUP2 DUP2 MSTORE PUSH1 0x20 ADD DUP3 DUP1 SLOAD PUSH2 0x4F4 SWAP1 PUSH2 0x14A7 JUMP JUMPDEST DUP1 ISZERO PUSH2 0x541 JUMPI DUP1 PUSH1 0x1F LT PUSH2 0x516 JUMPI PUSH2 0x100 DUP1 DUP4 SLOAD DIV MUL DUP4 MSTORE SWAP2 PUSH1 0x20 ADD SWAP2 PUSH2 0x541 JUMP JUMPDEST DUP3 ADD SWAP2 SWAP1 PUSH1 0x0 MSTORE PUSH1 0x20 PUSH1 0x0 KECCAK256 SWAP1 JUMPDEST DUP2 SLOAD DUP2 MSTORE SWAP1 PUSH1 0x1 ADD SWAP1 PUSH1 0x20 ADD DUP1 DUP4 GT PUSH2 0x524 JUMPI DUP3 SWAP1 SUB PUSH1 0x1F AND DUP3 ADD SWAP2 JUMPDEST POP POP POP POP POP SWAP1 DUP1 PUSH1 0x4 ADD SLOAD SWAP1 POP DUP6 JUMP JUMPDEST PUSH1 0x0 DUP3 GT DUP1 ISZERO PUSH2 0x562 JUMPI POP PUSH1 0x0 SLOAD DUP3 LT JUMPDEST PUSH2 0x5A1 JUMPI PUSH1 0x40 MLOAD PUSH32 0x8C379A000000000000000000000000000000000000000000000000000000000 DUP2 MSTORE PUSH1 0x4 ADD PUSH2 0x598 SWAP1 PUSH2 0x1524 JUMP JUMPDEST PUSH1 0x40 MLOAD DUP1 SWAP2 SUB SWAP1 REVERT JUMPDEST PUSH1 0x0 DUP2 PUSH1 0xFF AND LT ISZERO DUP1 ISZERO PUSH2 0x5B9 JUMPI POP PUSH1 0x4 DUP2 PUSH1 0xFF AND GT ISZERO JUMPDEST PUSH2 0x5F8 JUMPI PUSH1 0x40 MLOAD PUSH32 0x8C379A000000000000000000000000000000000000000000000000000000000 DUP2 MSTORE PUSH1 0x4 ADD PUSH2 0x5EF SWAP1 PUSH2 0x1590 JUMP JUMPDEST PUSH1 0x40 MLOAD DUP1 SWAP2 SUB SWAP1 REVERT JUMPDEST DUP2 PUSH32 0x2DA7B23CA63C1EB969EEE5FAE4ACB98186ABECF5358B0354A82A5183EBCA6B2A DUP3 PUSH1 0x40 MLOAD PUSH2 0x628 SWAP2 SWAP1 PUSH2 0xEC6 JUMP JUMPDEST PUSH1 0x40 MLOAD DUP1 SWAP2 SUB SWAP1 LOG2 POP POP JUMP JUMPDEST PUSH1 0x5 PUSH1 0x20 MSTORE DUP2 PUSH1 0x0 MSTORE PUSH1 0x40 PUSH1 0x0 KECCAK256 PUSH1 0x20 MSTORE DUP1 PUSH1 0x0 MSTORE PUSH1 0x40 PUSH1 0x0 KECCAK256 PUSH1 0x0 SWAP2 POP SWAP2 POP SWAP1 SLOAD SWAP1 PUSH2 0x100 EXP SWAP1 DIV PUSH1 0xFF AND DUP2 JUMP JUMPDEST PUSH1 0x0 DUP2 JUMP JUMPDEST PUSH1 0x0 DUP3 GT DUP1 ISZERO PUSH2 0x679 JUMPI POP PUSH1 0x1 SLOAD DUP3 LT JUMPDEST PUSH2 0x6B8 JUMPI PUSH1 0x40 MLOAD PUSH32 0x8C379A000000000000000000000000000000000000000000000000000000000 DUP2 MSTORE PUSH1 0x4 ADD PUSH2 0x6AF SWAP1 PUSH2 0x15FC JUMP JUMPDEST PUSH1 0x40 MLOAD DUP1 SWAP2 SUB SWAP1 REVERT JUMPDEST PUSH1 0x0 PUSH1 0x3 PUSH1 0x0 DUP5 DUP2 MSTORE PUSH1 0x20 ADD SWAP1 DUP2 MSTORE PUSH1 0x20 ADD PUSH1 0x0 KECCAK256 SWAP1 POP DUP1 PUSH1 0x3 ADD PUSH1 0x0 SWAP1 SLOAD SWAP1 PUSH2 0x100 EXP SWAP1 DIV PUSH1 0xFF AND PUSH2 0x720 JUMPI PUSH1 0x40 MLOAD PUSH32 0x8C379A000000000000000000000000000000000000000000000000000000000 DUP2 MSTORE PUSH1 0x4 ADD PUSH2 0x717 SWAP1 PUSH2 0x1668 JUMP JUMPDEST PUSH1 0x40 MLOAD DUP1 SWAP2 SUB SWAP1 REVERT JUMPDEST DUP1 PUSH1 0x2 ADD SLOAD TIMESTAMP GT ISZERO PUSH2 0x767 JUMPI PUSH1 0x40 MLOAD PUSH32 0x8C379A000000000000000000000000000000000000000000000000000000000 DUP2 MSTORE PUSH1 0x4 ADD PUSH2 0x75E SWAP1 PUSH2 0x16D4 JUMP JUMPDEST PUSH1 0x40 MLOAD DUP1 SWAP2 SUB SWAP1 REVERT JUMPDEST PUSH1 0x4 DUP3 PUSH1 0xFF AND GT ISZERO PUSH2 0x7AE JUMPI PUSH1 0x40 MLOAD PUSH32 0x8C379A000000000000000000000000000000000000000000000000000000000 DUP2 MSTORE PUSH1 0x4 ADD PUSH2 0x7A5 SWAP1 PUSH2 0x1740 JUMP JUMPDEST PUSH1 0x40 MLOAD DUP1 SWAP2 SUB SWAP1 REVERT JUMPDEST PUSH1 0x5 PUSH1 0x0 DUP5 DUP2 MSTORE PUSH1 0x20 ADD SWAP1 DUP2 MSTORE PUSH1 0x20 ADD PUSH1 0x0 KECCAK256 PUSH1 0x0 CALLER PUSH20 0xFFFFFFFFFFFFFFFFFFFFFFFFFFFFFFFFFFFFFFFF AND PUSH20 0xFFFFFFFFFFFFFFFFFFFFFFFFFFFFFFFFFFFFFFFF AND DUP2 MSTORE PUSH1 0x20 ADD SWAP1 DUP2 MSTORE PUSH1 0x20 ADD PUSH1 0x0 KECCAK256 PUSH1 0x0 SWAP1 SLOAD SWAP1 PUSH2 0x100 EXP SWAP1 DIV PUSH1 0xFF AND ISZERO PUSH2 0x84C JUMPI PUSH1 0x40 MLOAD PUSH32 0x8C379A000000000000000000000000000000000000000000000000000000000 DUP2 MSTORE PUSH1 0x4 ADD PUSH2 0x843 SWAP1 PUSH2 0x17AC JUMP JUMPDEST PUSH1 0x40 MLOAD DUP1 SWAP2 SUB SWAP1 REVERT JUMPDEST PUSH1 0x1 PUSH1 0x5 PUSH1 0x0 DUP6 DUP2 MSTORE PUSH1 0x20 ADD SWAP1 DUP2 MSTORE PUSH1 0x20 ADD PUSH1 0x0 KECCAK256 PUSH1 0x0 CALLER PUSH20 0xFFFFFFFFFFFFFFFFFFFFFFFFFFFFFFFFFFFFFFFF AND PUSH20 0xFFFFFFFFFFFFFFFFFFFFFFFFFFFFFFFFFFFFFFFF AND DUP2 MSTORE PUSH1 0x20 ADD SWAP1 DUP2 MSTORE PUSH1 0x20 ADD PUSH1 0x0 KECCAK256 PUSH1 0x0 PUSH2 0x100 EXP DUP2 SLOAD DUP2 PUSH1 0xFF MUL NOT AND SWAP1 DUP4 ISZERO ISZERO MUL OR SWAP1 SSTORE POP PUSH1 0x4 PUSH1 0x0 DUP5 DUP2 MSTORE PUSH1 0x20 ADD SWAP1 DUP2 MSTORE PUSH1 0x20 ADD PUSH1 0x0 KECCAK256 PUSH1 0x0 DUP4 PUSH1 0xFF AND PUSH1 0xFF AND DUP2 MSTORE PUSH1 0x20 ADD SWAP1 DUP2 MSTORE PUSH1 0x20 ADD PUSH1 0x0 KECCAK256 PUSH1 0x0 DUP2 SLOAD DUP1 SWAP3 SWAP2 SWAP1 PUSH2 0x8F0 SWAP1 PUSH2 0x17FB JUMP JUMPDEST SWAP2 SWAP1 POP SSTORE POP CALLER PUSH20 0xFFFFFFFFFFFFFFFFFFFFFFFFFFFFFFFFFFFFFFFF AND DUP4 PUSH32 0xEBA4866100B822F0F391E610E7EDFAB790B9E8766C0012733C26B2F1858E8DD7 DUP5 PUSH1 0x40 MLOAD PUSH2 0x93C SWAP2 SWAP1 PUSH2 0xEC6 JUMP JUMPDEST PUSH1 0x40 MLOAD DUP1 SWAP2 SUB SWAP1 LOG3 POP POP POP JUMP JUMPDEST PUSH1 0x1 DUP2 JUMP JUMPDEST PUSH1 0x0 DUP1 DUP6 GT DUP1 ISZERO PUSH2 0x960 JUMPI POP PUSH1 0x0 SLOAD DUP6 LT JUMPDEST PUSH2 0x99F JUMPI PUSH1 0x40 MLOAD PUSH32 0x8C379A000000000000000000000000000000000000000000000000000000000 DUP2 MSTORE PUSH1 0x4 ADD PUSH2 0x996 SWAP1 PUSH2 0x1524 JUMP JUMPDEST PUSH1 0x40 MLOAD DUP1 SWAP2 SUB SWAP1 REVERT JUMPDEST PUSH1 0x0 PUSH1 0x1 PUSH1 0x0 DUP2 SLOAD DUP1 SWAP3 SWAP2 SWAP1 PUSH2 0x9B4 SWAP1 PUSH2 0x17FB JUMP JUMPDEST SWAP2 SWAP1 POP SSTORE SWAP1 POP PUSH1 0x40 MLOAD DUP1 PUSH1 0x80 ADD PUSH1 0x40 MSTORE DUP1 DUP8 DUP2 MSTORE PUSH1 0x20 ADD DUP7 DUP7 DUP1 DUP1 PUSH1 0x1F ADD PUSH1 0x20 DUP1 SWAP2 DIV MUL PUSH1 0x20 ADD PUSH1 0x40 MLOAD SWAP1 DUP2 ADD PUSH1 0x40 MSTORE DUP1 SWAP4 SWAP3 SWAP2 SWAP1 DUP2 DUP2 MSTORE PUSH1 0x20 ADD DUP4 DUP4 DUP1 DUP3 DUP5 CALLDATACOPY PUSH1 0x0 DUP2 DUP5 ADD MSTORE PUSH1 0x1F NOT PUSH1 0x1F DUP3 ADD AND SWAP1 POP DUP1 DUP4 ADD SWAP3 POP POP POP POP POP POP POP DUP2 MSTORE PUSH1 0x20 ADD DUP5 DUP2 MSTORE PUSH1 0x20 ADD PUSH1 0x1 ISZERO ISZERO DUP2 MSTORE POP PUSH1 0x3 PUSH1 0x0 DUP4 DUP2 MSTORE PUSH1 0x20 ADD SWAP1 DUP2 MSTORE PUSH1 0x20 ADD PUSH1 0x0 KECCAK256 PUSH1 0x0 DUP3 ADD MLOAD DUP2 PUSH1 0x0 ADD SSTORE PUSH1 0x20 DUP3 ADD MLOAD DUP2 PUSH1 0x1 ADD SWAP1 DUP2 PUSH2 0xA54 SWAP2 SWAP1 PUSH2 0x1A1E JUMP JUMPDEST POP PUSH1 0x40 DUP3 ADD MLOAD DUP2 PUSH1 0x2 ADD SSTORE PUSH1 0x60 DUP3 ADD MLOAD DUP2 PUSH1 0x3 ADD PUSH1 0x0 PUSH2 0x100 EXP DUP2 SLOAD DUP2 PUSH1 0xFF MUL NOT AND SWAP1 DUP4 ISZERO ISZERO MUL OR SWAP1 SSTORE POP SWAP1 POP POP DUP6 DUP2 PUSH32 0xB54B34C83EC6D2E03A59C92F0E87C8DCA8C17483DE7CAF76545917D0D5660C28 DUP8 DUP8 DUP8 PUSH1 0x40 MLOAD PUSH2 0xAB7 SWAP4 SWAP3 SWAP2 SWAP1 PUSH2 0x1B2C JUMP JUMPDEST PUSH1 0x40 MLOAD DUP1 SWAP2 SUB SWAP1 LOG3 DUP1 SWAP2 POP POP SWAP5 SWAP4 POP POP POP POP JUMP JUMPDEST PUSH1 0x0 DUP2 GT DUP1 ISZERO PUSH2 0xADC JUMPI POP PUSH1 0x1 SLOAD DUP2 LT JUMPDEST PUSH2 0xB1B JUMPI PUSH1 0x40 MLOAD PUSH32 0x8C379A000000000000000000000000000000000000000000000000000000000 DUP2 MSTORE PUSH1 0x4 ADD PUSH2 0xB12 SWAP1 PUSH2 0x15FC JUMP JUMPDEST PUSH1 0x40 MLOAD DUP1 SWAP2 SUB SWAP1 REVERT JUMPDEST PUSH1 0x0 PUSH1 0x3 PUSH1 0x0 DUP4 DUP2 MSTORE PUSH1 0x20 ADD SWAP1 DUP2 MSTORE PUSH1 0x20 ADD PUSH1 0x0 KECCAK256 PUSH1 0x3 ADD PUSH1 0x0 PUSH2 0x100 EXP DUP2 SLOAD DUP2 PUSH1 0xFF MUL NOT AND SWAP1 DUP4 ISZERO ISZERO MUL OR SWAP1 SSTORE POP POP JUMP JUMPDEST PUSH1 0x0 SLOAD DUP2 JUMP JUMPDEST PUSH1 0x0 DUP6 GT DUP1 ISZERO PUSH2 0xB64 JUMPI POP PUSH1 0x0 SLOAD DUP6 LT JUMPDEST PUSH2 0xBA3 JUMPI PUSH1 0x40 MLOAD PUSH32 0x8C379A000000000000000000000000000000000000000000000000000000000 DUP2 MSTORE PUSH1 0x4 ADD PUSH2 0xB9A SWAP1 PUSH2 0x1524 JUMP JUMPDEST PUSH1 0x40 MLOAD DUP1 SWAP2 SUB SWAP1 REVERT JUMPDEST DUP5 PUSH32 0xB92C612969B442F1471A1DFF544C3BCBDDBE444E889BEAC5F62732D372AD81DB DUP6 DUP6 DUP6 DUP6 PUSH1 0x40 MLOAD PUSH2 0xBD9 SWAP5 SWAP4 SWAP3 SWAP2 SWAP1 PUSH2 0x1B5E JUMP JUMPDEST PUSH1 0x40 MLOAD DUP1 SWAP2 SUB SWAP1 LOG2 POP POP POP POP POP JUMP JUMPDEST PUSH1 0x3 PUSH1 0x20 MSTORE DUP1 PUSH1 0x0 MSTORE PUSH1 0x40 PUSH1 0x0 KECCAK256 PUSH1 0x0 SWAP2 POP SWAP1 POP DUP1 PUSH1 0x0 ADD SLOAD SWAP1 DUP1 PUSH1 0x1 ADD DUP1 SLOAD PUSH2 0xC11 SWAP1 PUSH2 0x14A7 JUMP JUMPDEST DUP1 PUSH1 0x1F ADD PUSH1 0x20 DUP1 SWAP2 DIV MUL PUSH1 0x20 ADD PUSH1 0x40 MLOAD SWAP1 DUP2 ADD PUSH1 0x40 MSTORE DUP1 SWAP3 SWAP2 SWAP1 DUP2 DUP2 MSTORE PUSH1 0x20 ADD DUP3 DUP1 SLOAD PUSH2 0xC3D SWAP1 PUSH2 0x14A7 JUMP JUMPDEST DUP1 ISZERO PUSH2 0xC8A JUMPI DUP1 PUSH1 0x1F LT PUSH2 0xC5F JUMPI PUSH2 0x100 DUP1 DUP4 SLOAD DIV MUL DUP4 MSTORE SWAP2 PUSH1 0x20 ADD SWAP2 PUSH2 0xC8A JUMP JUMPDEST DUP3 ADD SWAP2 SWAP1 PUSH1 0x0 MSTORE PUSH1 0x20 PUSH1 0x0 KECCAK256 SWAP1 JUMPDEST DUP2 SLOAD DUP2 MSTORE SWAP1 PUSH1 0x1 ADD SWAP1 PUSH1 0x20 ADD DUP1 DUP4 GT PUSH2 0xC6D JUMPI DUP3 SWAP1 SUB PUSH1 0x1F AND DUP3 ADD SWAP2 JUMPDEST POP POP POP POP POP SWAP1 DUP1 PUSH1 0x2 ADD SLOAD SWAP1 DUP1 PUSH1 0x3 ADD PUSH1 0x0 SWAP1 SLOAD SWAP1 PUSH2 0x100 EXP SWAP1 DIV PUSH1 0xFF AND SWAP1 POP DUP5 JUMP JUMPDEST PUSH1 0x0 DUP1 PUSH1 0x0 DUP1 DUP2 SLOAD DUP1 SWAP3 SWAP2 SWAP1 PUSH2 0xCC2 SWAP1 PUSH2 0x17FB JUMP JUMPDEST SWAP2 SWAP1 POP SSTORE SWAP1 POP PUSH1 0x40 MLOAD DUP1 PUSH1 0xA0 ADD PUSH1 0x40 MSTORE DUP1 DUP11 DUP2 MSTORE PUSH1 0x20 ADD DUP10 DUP10 DUP1 DUP1 PUSH1 0x1F ADD PUSH1 0x20 DUP1 SWAP2 DIV MUL PUSH1 0x20 ADD PUSH1 0x40 MLOAD SWAP1 DUP2 ADD PUSH1 0x40 MSTORE DUP1 SWAP4 SWAP3 SWAP2 SWAP1 DUP2 DUP2 MSTORE PUSH1 0x20 ADD DUP4 DUP4 DUP1 DUP3 DUP5 CALLDATACOPY PUSH1 0x0 DUP2 DUP5 ADD MSTORE PUSH1 0x1F NOT PUSH1 0x1F DUP3 ADD AND SWAP1 POP DUP1 DUP4 ADD SWAP3 POP POP POP POP POP POP POP DUP2 MSTORE PUSH1 0x20 ADD DUP8 DUP8 DUP1 DUP1 PUSH1 0x1F ADD PUSH1 0x20 DUP1 SWAP2 DIV MUL PUSH1 0x20 ADD PUSH1 0x40 MLOAD SWAP1 DUP2 ADD PUSH1 0x40 MSTORE DUP1 SWAP4 SWAP3 SWAP2 SWAP1 DUP2 DUP2 MSTORE PUSH1 0x20 ADD DUP4 DUP4 DUP1 DUP3 DUP5 CALLDATACOPY PUSH1 0x0 DUP2 DUP5 ADD MSTORE PUSH1 0x1F NOT PUSH1 0x1F DUP3 ADD AND SWAP1 POP DUP1 DUP4 ADD SWAP3 POP POP POP POP POP POP POP DUP2 MSTORE PUSH1 0x20 ADD DUP6 DUP6 DUP1 DUP1 PUSH1 0x1F ADD PUSH1 0x20 DUP1 SWAP2 DIV MUL PUSH1 0x20 ADD PUSH1 0x40 MLOAD SWAP1 DUP2 ADD PUSH1 0x40 MSTORE DUP1 SWAP4 SWAP3 SWAP2 SWAP1 DUP2 DUP2 MSTORE PUSH1 0x20 ADD DUP4 DUP4 DUP1 DUP3 DUP5 CALLDATACOPY PUSH1 0x0 DUP2 DUP5 ADD MSTORE PUSH1 0x1F NOT PUSH1 0x1F DUP3 ADD AND SWAP1 POP DUP1 DUP4 ADD SWAP3 POP POP POP POP POP POP POP DUP2 MSTORE PUSH1 0x20 ADD TIMESTAMP DUP2 MSTORE POP PUSH1 0x2 PUSH1 0x0 DUP4 DUP2 MSTORE PUSH1 0x20 ADD SWAP1 DUP2 MSTORE PUSH1 0x20 ADD PUSH1 0x0 KECCAK256 PUSH1 0x0 DUP3 ADD MLOAD DUP2 PUSH1 0x0 ADD SSTORE PUSH1 0x20 DUP3 ADD MLOAD DUP2 PUSH1 0x1 ADD SWAP1 DUP2 PUSH2 0xDED SWAP2 SWAP1 PUSH2 0x1A1E JUMP JUMPDEST POP PUSH1 0x40 DUP3 ADD MLOAD DUP2 PUSH1 0x2 ADD SWAP1 DUP2 PUSH2 0xE03 SWAP2 SWAP1 PUSH2 0x1A1E JUMP JUMPDEST POP PUSH1 0x60 DUP3 ADD MLOAD DUP2 PUSH1 0x3 ADD SWAP1 DUP2 PUSH2 0xE19 SWAP2 SWAP1 PUSH2 0x1A1E JUMP JUMPDEST POP PUSH1 0x80 DUP3 ADD MLOAD DUP2 PUSH1 0x4 ADD SSTORE SWAP1 POP POP DUP1 PUSH32 0x949784DA28E3F5675592F9C6BD64128CABB3A065BEEC7DFA21F49400F320AD3E DUP11 DUP11 DUP11 DUP11 DUP11 DUP11 DUP11 PUSH1 0x40 MLOAD PUSH2 0xE63 SWAP8 SWAP7 SWAP6 SWAP5 SWAP4 SWAP3 SWAP2 SWAP1 PUSH2 0x1B99 JUMP JUMPDEST PUSH1 0x40 MLOAD DUP1 SWAP2 SUB SWAP1 LOG2 DUP1 SWAP2 POP POP SWAP8 SWAP7 POP POP POP POP POP POP POP JUMP JUMPDEST PUSH1 0x4 PUSH1 0x20 MSTORE DUP2 PUSH1 0x0 MSTORE PUSH1 0x40 PUSH1 0x0 KECCAK256 PUSH1 0x20 MSTORE DUP1 PUSH1 0x0 MSTORE PUSH1 0x40 PUSH1 0x0 KECCAK256 PUSH1 0x0 SWAP2 POP SWAP2 POP POP SLOAD DUP2 JUMP JUMPDEST PUSH1 0x1 SLOAD DUP2 JUMP JUMPDEST PUSH1 0x4 DUP2 JUMP JUMPDEST PUSH1 0x0 PUSH1 0xFF DUP3 AND SWAP1 POP SWAP2 SWAP1 POP JUMP JUMPDEST PUSH2 0xEC0 DUP2 PUSH2 0xEAA JUMP JUMPDEST DUP3 MSTORE POP POP JUMP JUMPDEST PUSH1 0x0 PUSH1 0x20 DUP3 ADD SWAP1 POP PUSH2 0xEDB PUSH1 0x0 DUP4 ADD DUP5 PUSH2 0xEB7 JUMP JUMPDEST SWAP3 SWAP2 POP POP JUMP JUMPDEST PUSH1 0x0 DUP1 REVERT JUMPDEST PUSH1 0x0 DUP1 REVERT JUMPDEST PUSH1 0x0 DUP2 SWAP1 POP SWAP2 SWAP1 POP JUMP JUMPDEST PUSH2 0xEFE DUP2 PUSH2 0xEEB JUMP JUMPDEST DUP2 EQ PUSH2 0xF09 JUMPI PUSH1 0x0 DUP1 REVERT JUMPDEST POP JUMP JUMPDEST PUSH1 0x0 DUP2 CALLDATALOAD SWAP1 POP PUSH2 0xF1B DUP2 PUSH2 0xEF5 JUMP JUMPDEST SWAP3 SWAP2 POP POP JUMP JUMPDEST PUSH1 0x0 PUSH1 0x20 DUP3 DUP5 SUB SLT ISZERO PUSH2 0xF37 JUMPI PUSH2 0xF36 PUSH2 0xEE1 JUMP JUMPDEST JUMPDEST PUSH1 0x0 PUSH2 0xF45 DUP5 DUP3 DUP6 ADD PUSH2 0xF0C JUMP JUMPDEST SWAP2 POP POP SWAP3 SWAP2 POP POP JUMP JUMPDEST PUSH1 0x0 DUP2 SWAP1 POP SWAP2 SWAP1 POP JUMP JUMPDEST PUSH2 0xF61 DUP2 PUSH2 0xF4E JUMP JUMPDEST DUP3 MSTORE POP POP JUMP JUMPDEST PUSH1 0x0 DUP2 MLOAD SWAP1 POP SWAP2 SWAP1 POP JUMP JUMPDEST PUSH1 0x0 DUP3 DUP3 MSTORE PUSH1 0x20 DUP3 ADD SWAP1 POP SWAP3 SWAP2 POP POP JUMP JUMPDEST PUSH1 0x0 JUMPDEST DUP4 DUP2 LT ISZERO PUSH2 0xFA1 JUMPI DUP1 DUP3 ADD MLOAD DUP2 DUP5 ADD MSTORE PUSH1 0x20 DUP2 ADD SWAP1 POP PUSH2 0xF86 JUMP JUMPDEST PUSH1 0x0 DUP5 DUP5 ADD MSTORE POP POP POP POP JUMP JUMPDEST PUSH1 0x0 PUSH1 0x1F NOT PUSH1 0x1F DUP4 ADD AND SWAP1 POP SWAP2 SWAP1 POP JUMP JUMPDEST PUSH1 0x0 PUSH2 0xFC9 DUP3 PUSH2 0xF67 JUMP JUMPDEST PUSH2 0xFD3 DUP2 DUP6 PUSH2 0xF72 JUMP JUMPDEST SWAP4 POP PUSH2 0xFE3 DUP2 DUP6 PUSH1 0x20 DUP7 ADD PUSH2 0xF83 JUMP JUMPDEST PUSH2 0xFEC DUP2 PUSH2 0xFAD JUMP JUMPDEST DUP5 ADD SWAP2 POP POP SWAP3 SWAP2 POP POP JUMP JUMPDEST PUSH2 0x1000 DUP2 PUSH2 0xEEB JUMP JUMPDEST DUP3 MSTORE POP POP JUMP JUMPDEST PUSH1 0x0 PUSH1 0xA0 DUP3 ADD SWAP1 POP PUSH2 0x101B PUSH1 0x0 DUP4 ADD DUP9 PUSH2 0xF58 JUMP JUMPDEST DUP2 DUP2 SUB PUSH1 0x20 DUP4 ADD MSTORE PUSH2 0x102D DUP2 DUP8 PUSH2 0xFBE JUMP JUMPDEST SWAP1 POP DUP2 DUP2 SUB PUSH1 0x40 DUP4 ADD MSTORE PUSH2 0x1041 DUP2 DUP7 PUSH2 0xFBE JUMP JUMPDEST SWAP1 POP DUP2 DUP2 SUB PUSH1 0x60 DUP4 ADD MSTORE PUSH2 0x1055 DUP2 DUP6 PUSH2 0xFBE JUMP JUMPDEST SWAP1 POP PUSH2 0x1064 PUSH1 0x80 DUP4 ADD DUP5 PUSH2 0xFF7 JUMP JUMPDEST SWAP7 SWAP6 POP POP POP POP POP POP JUMP JUMPDEST PUSH2 0x1077 DUP2 PUSH2 0xEAA JUMP JUMPDEST DUP2 EQ PUSH2 0x1082 JUMPI PUSH1 0x0 DUP1 REVERT JUMPDEST POP JUMP JUMPDEST PUSH1 0x0 DUP2 CALLDATALOAD SWAP1 POP PUSH2 0x1094 DUP2 PUSH2 0x106E JUMP JUMPDEST SWAP3 SWAP2 POP POP JUMP JUMPDEST PUSH1 0x0 DUP1 PUSH1 0x40 DUP4 DUP6 SUB SLT ISZERO PUSH2 0x10B1 JUMPI PUSH2 0x10B0 PUSH2 0xEE1 JUMP JUMPDEST JUMPDEST PUSH1 0x0 PUSH2 0x10BF DUP6 DUP3 DUP7 ADD PUSH2 0xF0C JUMP JUMPDEST SWAP3 POP POP PUSH1 0x20 PUSH2 0x10D0 DUP6 DUP3 DUP7 ADD PUSH2 0x1085 JUMP JUMPDEST SWAP2 POP POP SWAP3 POP SWAP3 SWAP1 POP JUMP JUMPDEST PUSH1 0x0 PUSH20 0xFFFFFFFFFFFFFFFFFFFFFFFFFFFFFFFFFFFFFFFF DUP3 AND SWAP1 POP SWAP2 SWAP1 POP JUMP JUMPDEST PUSH1 0x0 PUSH2 0x1105 DUP3 PUSH2 0x10DA JUMP JUMPDEST SWAP1 POP SWAP2 SWAP1 POP JUMP JUMPDEST PUSH2 0x1115 DUP2 PUSH2 0x10FA JUMP JUMPDEST DUP2 EQ PUSH2 0x1120 JUMPI PUSH1 0x0 DUP1 REVERT JUMPDEST POP JUMP JUMPDEST PUSH1 0x0 DUP2 CALLDATALOAD SWAP1 POP PUSH2 0x1132 DUP2 PUSH2 0x110C JUMP JUMPDEST SWAP3 SWAP2 POP POP JUMP JUMPDEST PUSH1 0x0 DUP1 PUSH1 0x40 DUP4 DUP6 SUB SLT ISZERO PUSH2 0x114F JUMPI PUSH2 0x114E PUSH2 0xEE1 JUMP JUMPDEST JUMPDEST PUSH1 0x0 PUSH2 0x115D DUP6 DUP3 DUP7 ADD PUSH2 0xF0C JUMP JUMPDEST SWAP3 POP POP PUSH1 0x20 PUSH2 0x116E DUP6 DUP3 DUP7 ADD PUSH2 0x1123 JUMP JUMPDEST SWAP2 POP POP SWAP3 POP SWAP3 SWAP1 POP JUMP JUMPDEST PUSH1 0x0 DUP2 ISZERO ISZERO SWAP1 POP SWAP2 SWAP1 POP JUMP JUMPDEST PUSH2 0x118D DUP2 PUSH2 0x1178 JUMP JUMPDEST DUP3 MSTORE POP POP JUMP JUMPDEST PUSH1 0x0 PUSH1 0x20 DUP3 ADD SWAP1 POP PUSH2 0x11A8 PUSH1 0x0 DUP4 ADD DUP5 PUSH2 0x1184 JUMP JUMPDEST SWAP3 SWAP2 POP POP JUMP JUMPDEST PUSH1 0x0 DUP1 REVERT JUMPDEST PUSH1 0x0 DUP1 REVERT JUMPDEST PUSH1 0x0 DUP1 REVERT JUMPDEST PUSH1 0x0 DUP1 DUP4 PUSH1 0x1F DUP5 ADD SLT PUSH2 0x11D3 JUMPI PUSH2 0x11D2 PUSH2 0x11AE JUMP JUMPDEST JUMPDEST DUP3 CALLDATALOAD SWAP1 POP PUSH8 0xFFFFFFFFFFFFFFFF DUP2 GT ISZERO PUSH2 0x11F0 JUMPI PUSH2 0x11EF PUSH2 0x11B3 JUMP JUMPDEST JUMPDEST PUSH1 0x20 DUP4 ADD SWAP2 POP DUP4 PUSH1 0x1 DUP3 MUL DUP4 ADD GT ISZERO PUSH2 0x120C JUMPI PUSH2 0x120B PUSH2 0x11B8 JUMP JUMPDEST JUMPDEST SWAP3 POP SWAP3 SWAP1 POP JUMP JUMPDEST PUSH1 0x0 DUP1 PUSH1 0x0 DUP1 PUSH1 0x60 DUP6 DUP8 SUB SLT ISZERO PUSH2 0x122D JUMPI PUSH2 0x122C PUSH2 0xEE1 JUMP JUMPDEST JUMPDEST PUSH1 0x0 PUSH2 0x123B DUP8 DUP3 DUP9 ADD PUSH2 0xF0C JUMP JUMPDEST SWAP5 POP POP PUSH1 0x20 DUP6 ADD CALLDATALOAD PUSH8 0xFFFFFFFFFFFFFFFF DUP2 GT ISZERO PUSH2 0x125C JUMPI PUSH2 0x125B PUSH2 0xEE6 JUMP JUMPDEST JUMPDEST PUSH2 0x1268 DUP8 DUP3 DUP9 ADD PUSH2 0x11BD JUMP JUMPDEST SWAP4 POP SWAP4 POP POP PUSH1 0x40 PUSH2 0x127B DUP8 DUP3 DUP9 ADD PUSH2 0xF0C JUMP JUMPDEST SWAP2 POP POP SWAP3 SWAP6 SWAP2 SWAP5 POP SWAP3 POP JUMP JUMPDEST PUSH1 0x0 PUSH1 0x20 DUP3 ADD SWAP1 POP PUSH2 0x129C PUSH1 0x0 DUP4 ADD DUP5 PUSH2 0xFF7 JUMP JUMPDEST SWAP3 SWAP2 POP POP JUMP JUMPDEST PUSH1 0x0 DUP1 PUSH1 0x0 DUP1 PUSH1 0x0 PUSH1 0x60 DUP7 DUP9 SUB SLT ISZERO PUSH2 0x12BE JUMPI PUSH2 0x12BD PUSH2 0xEE1 JUMP JUMPDEST JUMPDEST PUSH1 0x0 PUSH2 0x12CC DUP9 DUP3 DUP10 ADD PUSH2 0xF0C JUMP JUMPDEST SWAP6 POP POP PUSH1 0x20 DUP7 ADD CALLDATALOAD PUSH8 0xFFFFFFFFFFFFFFFF DUP2 GT ISZERO PUSH2 0x12ED JUMPI PUSH2 0x12EC PUSH2 0xEE6 JUMP JUMPDEST JUMPDEST PUSH2 0x12F9 DUP9 DUP3 DUP10 ADD PUSH2 0x11BD JUMP JUMPDEST SWAP5 POP SWAP5 POP POP PUSH1 0x40 DUP7 ADD CALLDATALOAD PUSH8 0xFFFFFFFFFFFFFFFF DUP2 GT ISZERO PUSH2 0x131C JUMPI PUSH2 0x131B PUSH2 0xEE6 JUMP JUMPDEST JUMPDEST PUSH2 0x1328 DUP9 DUP3 DUP10 ADD PUSH2 0x11BD JUMP JUMPDEST SWAP3 POP SWAP3 POP POP SWAP3 SWAP6 POP SWAP3 SWAP6 SWAP1 SWAP4 POP JUMP JUMPDEST PUSH1 0x0 PUSH1 0x80 DUP3 ADD SWAP1 POP PUSH2 0x134C PUSH1 0x0 DUP4 ADD DUP8 PUSH2 0xFF7 JUMP JUMPDEST DUP2 DUP2 SUB PUSH1 0x20 DUP4 ADD MSTORE PUSH2 0x135E DUP2 DUP7 PUSH2 0xFBE JUMP JUMPDEST SWAP1 POP PUSH2 0x136D PUSH1 0x40 DUP4 ADD DUP6 PUSH2 0xFF7 JUMP JUMPDEST PUSH2 0x137A PUSH1 0x60 DUP4 ADD DUP5 PUSH2 0x1184 JUMP JUMPDEST SWAP6 SWAP5 POP POP POP POP POP JUMP JUMPDEST PUSH2 0x138C DUP2 PUSH2 0xF4E JUMP JUMPDEST DUP2 EQ PUSH2 0x1397 JUMPI PUSH1 0x0 DUP1 REVERT JUMPDEST POP JUMP JUMPDEST PUSH1 0x0 DUP2 CALLDATALOAD SWAP1 POP PUSH2 0x13A9 DUP2 PUSH2 0x1383 JUMP JUMPDEST SWAP3 SWAP2 POP POP JUMP JUMPDEST PUSH1 0x0 DUP1 PUSH1 0x0 DUP1 PUSH1 0x0 DUP1 PUSH1 0x0 PUSH1 0x80 DUP9 DUP11 SUB SLT ISZERO PUSH2 0x13CE JUMPI PUSH2 0x13CD PUSH2 0xEE1 JUMP JUMPDEST JUMPDEST PUSH1 0x0 PUSH2 0x13DC DUP11 DUP3 DUP12 ADD PUSH2 0x139A JUMP JUMPDEST SWAP8 POP POP PUSH1 0x20 DUP9 ADD CALLDATALOAD PUSH8 0xFFFFFFFFFFFFFFFF DUP2 GT ISZERO PUSH2 0x13FD JUMPI PUSH2 0x13FC PUSH2 0xEE6 JUMP JUMPDEST JUMPDEST PUSH2 0x1409 DUP11 DUP3 DUP12 ADD PUSH2 0x11BD JUMP JUMPDEST SWAP7 POP SWAP7 POP POP PUSH1 0x40 DUP9 ADD CALLDATALOAD PUSH8 0xFFFFFFFFFFFFFFFF DUP2 GT ISZERO PUSH2 0x142C JUMPI PUSH2 0x142B PUSH2 0xEE6 JUMP JUMPDEST JUMPDEST PUSH2 0x1438 DUP11 DUP3 DUP12 ADD PUSH2 0x11BD JUMP JUMPDEST SWAP5 POP SWAP5 POP POP PUSH1 0x60 DUP9 ADD CALLDATALOAD PUSH8 0xFFFFFFFFFFFFFFFF DUP2 GT ISZERO PUSH2 0x145B JUMPI PUSH2 0x145A PUSH2 0xEE6 JUMP JUMPDEST JUMPDEST PUSH2 0x1467 DUP11 DUP3 DUP12 ADD PUSH2 0x11BD JUMP JUMPDEST SWAP3 POP SWAP3 POP POP SWAP3 SWAP6 SWAP9 SWAP2 SWAP5 SWAP8 POP SWAP3 SWAP6 POP JUMP JUMPDEST PUSH32 0x4E487B7100000000000000000000000000000000000000000000000000000000 PUSH1 0x0 MSTORE PUSH1 0x22 PUSH1 0x4 MSTORE PUSH1 0x24 PUSH1 0x0 REVERT JUMPDEST PUSH1 0x0 PUSH1 0x2 DUP3 DIV SWAP1 POP PUSH1 0x1 DUP3 AND DUP1 PUSH2 0x14BF JUMPI PUSH1 0x7F DUP3 AND SWAP2 POP JUMPDEST PUSH1 0x20 DUP3 LT DUP2 SUB PUSH2 0x14D2 JUMPI PUSH2 0x14D1 PUSH2 0x1478 JUMP JUMPDEST JUMPDEST POP SWAP2 SWAP1 POP JUMP JUMPDEST PUSH32 0x496E76616C69642070726F6D6973650000000000000000000000000000000000 PUSH1 0x0 DUP3 ADD MSTORE POP JUMP JUMPDEST PUSH1 0x0 PUSH2 0x150E PUSH1 0xF DUP4 PUSH2 0xF72 JUMP JUMPDEST SWAP2 POP PUSH2 0x1519 DUP3 PUSH2 0x14D8 JUMP JUMPDEST PUSH1 0x20 DUP3 ADD SWAP1 POP SWAP2 SWAP1 POP JUMP JUMPDEST PUSH1 0x0 PUSH1 0x20 DUP3 ADD SWAP1 POP DUP2 DUP2 SUB PUSH1 0x0 DUP4 ADD MSTORE PUSH2 0x153D DUP2 PUSH2 0x1501 JUMP JUMPDEST SWAP1 POP SWAP2 SWAP1 POP JUMP JUMPDEST PUSH32 0x496E76616C696420737461747573000000000000000000000000000000000000 PUSH1 0x0 DUP3 ADD MSTORE POP JUMP JUMPDEST PUSH1 0x0 PUSH2 0x157A PUSH1 0xE DUP4 PUSH2 0xF72 JUMP JUMPDEST SWAP2 POP PUSH2 0x1585 DUP3 PUSH2 0x1544 JUMP JUMPDEST PUSH1 0x20 DUP3 ADD SWAP1 POP SWAP2 SWAP1 POP JUMP JUMPDEST PUSH1 0x0 PUSH1 0x20 DUP3 ADD SWAP1 POP DUP2 DUP2 SUB PUSH1 0x0 DUP4 ADD MSTORE PUSH2 0x15A9 DUP2 PUSH2 0x156D JUMP JUMPDEST SWAP1 POP SWAP2 SWAP1 POP JUMP JUMPDEST PUSH32 0x496E76616C696420726F756E6400000000000000000000000000000000000000 PUSH1 0x0 DUP3 ADD MSTORE POP JUMP JUMPDEST PUSH1 0x0 PUSH2 0x15E6 PUSH1 0xD DUP4 PUSH2 0xF72 JUMP JUMPDEST SWAP2 POP PUSH2 0x15F1 DUP3 PUSH2 0x15B0 JUMP JUMPDEST PUSH1 0x20 DUP3 ADD SWAP1 POP SWAP2 SWAP1 POP JUMP JUMPDEST PUSH1 0x0 PUSH1 0x20 DUP3 ADD SWAP1 POP DUP2 DUP2 SUB PUSH1 0x0 DUP4 ADD MSTORE PUSH2 0x1615 DUP2 PUSH2 0x15D9 JUMP JUMPDEST SWAP1 POP SWAP2 SWAP1 POP JUMP JUMPDEST PUSH32 0x526F756E6420636C6F7365640000000000000000000000000000000000000000 PUSH1 0x0 DUP3 ADD MSTORE POP JUMP JUMPDEST PUSH1 0x0 PUSH2 0x1652 PUSH1 0xC DUP4 PUSH2 0xF72 JUMP JUMPDEST SWAP2 POP PUSH2 0x165D DUP3 PUSH2 0x161C JUMP JUMPDEST PUSH1 0x20 DUP3 ADD SWAP1 POP SWAP2 SWAP1 POP JUMP JUMPDEST PUSH1 0x0 PUSH1 0x20 DUP3 ADD SWAP1 POP DUP2 DUP2 SUB PUSH1 0x0 DUP4 ADD MSTORE PUSH2 0x1681 DUP2 PUSH2 0x1645 JUMP JUMPDEST SWAP1 POP SWAP2 SWAP1 POP JUMP JUMPDEST PUSH32 0x526F756E64206578706972656400000000000000000000000000000000000000 PUSH1 0x0 DUP3 ADD MSTORE POP JUMP JUMPDEST PUSH1 0x0 PUSH2 0x16BE PUSH1 0xD DUP4 PUSH2 0xF72 JUMP JUMPDEST SWAP2 POP PUSH2 0x16C9 DUP3 PUSH2 0x1688 JUMP JUMPDEST PUSH1 0x20 DUP3 ADD SWAP1 POP SWAP2 SWAP1 POP JUMP JUMPDEST PUSH1 0x0 PUSH1 0x20 DUP3 ADD SWAP1 POP DUP2 DUP2 SUB PUSH1 0x0 DUP4 ADD MSTORE PUSH2 0x16ED DUP2 PUSH2 0x16B1 JUMP JUMPDEST SWAP1 POP SWAP2 SWAP1 POP JUMP JUMPDEST PUSH32 0x496E76616C696420766F7465206F7074696F6E00000000000000000000000000 PUSH1 0x0 DUP3 ADD MSTORE POP JUMP JUMPDEST PUSH1 0x0 PUSH2 0x172A PUSH1 0x13 DUP4 PUSH2 0xF72 JUMP JUMPDEST SWAP2 POP PUSH2 0x1735 DUP3 PUSH2 0x16F4 JUMP JUMPDEST PUSH1 0x20 DUP3 ADD SWAP1 POP SWAP2 SWAP1 POP JUMP JUMPDEST PUSH1 0x0 PUSH1 0x20 DUP3 ADD SWAP1 POP DUP2 DUP2 SUB PUSH1 0x0 DUP4 ADD MSTORE PUSH2 0x1759 DUP2 PUSH2 0x171D JUMP JUMPDEST SWAP1 POP SWAP2 SWAP1 POP JUMP JUMPDEST PUSH32 0x416C726561647920766F74656400000000000000000000000000000000000000 PUSH1 0x0 DUP3 ADD MSTORE POP JUMP JUMPDEST PUSH1 0x0 PUSH2 0x1796 PUSH1 0xD DUP4 PUSH2 0xF72 JUMP JUMPDEST SWAP2 POP PUSH2 0x17A1 DUP3 PUSH2 0x1760 JUMP JUMPDEST PUSH1 0x20 DUP3 ADD SWAP1 POP SWAP2 SWAP1 POP JUMP JUMPDEST PUSH1 0x0 PUSH1 0x20 DUP3 ADD SWAP1 POP DUP2 DUP2 SUB PUSH1 0x0 DUP4 ADD MSTORE PUSH2 0x17C5 DUP2 PUSH2 0x1789 JUMP JUMPDEST SWAP1 POP SWAP2 SWAP1 POP JUMP JUMPDEST PUSH32 0x4E487B7100000000000000000000000000000000000000000000000000000000 PUSH1 0x0 MSTORE PUSH1 0x11 PUSH1 0x4 MSTORE PUSH1 0x24 PUSH1 0x0 REVERT JUMPDEST PUSH1 0x0 PUSH2 0x1806 DUP3 PUSH2 0xEEB JUMP JUMPDEST SWAP2 POP PUSH32 0xFFFFFFFFFFFFFFFFFFFFFFFFFFFFFFFFFFFFFFFFFFFFFFFFFFFFFFFFFFFFFFFF DUP3 SUB PUSH2 0x1838 JUMPI PUSH2 0x1837 PUSH2 0x17CC JUMP JUMPDEST JUMPDEST PUSH1 0x1 DUP3 ADD SWAP1 POP SWAP2 SWAP1 POP JUMP JUMPDEST PUSH32 0x4E487B7100000000000000000000000000000000000000000000000000000000 PUSH1 0x0 MSTORE PUSH1 0x41 PUSH1 0x4 MSTORE PUSH1 0x24 PUSH1 0x0 REVERT JUMPDEST PUSH1 0x0 DUP2 SWAP1 POP DUP2 PUSH1 0x0 MSTORE PUSH1 0x20 PUSH1 0x0 KECCAK256 SWAP1 POP SWAP2 SWAP1 POP JUMP JUMPDEST PUSH1 0x0 PUSH1 0x20 PUSH1 0x1F DUP4 ADD DIV SWAP1 POP SWAP2 SWAP1 POP JUMP JUMPDEST PUSH1 0x0 DUP3 DUP3 SHL SWAP1 POP SWAP3 SWAP2 POP POP JUMP JUMPDEST PUSH1 0x0 PUSH1 0x8 DUP4 MUL PUSH2 0x18D4 PUSH32 0xFFFFFFFFFFFFFFFFFFFFFFFFFFFFFFFFFFFFFFFFFFFFFFFFFFFFFFFFFFFFFFFF DUP3 PUSH2 0x1897 JUMP JUMPDEST PUSH2 0x18DE DUP7 DUP4 PUSH2 0x1897 JUMP JUMPDEST SWAP6 POP DUP1 NOT DUP5 AND SWAP4 POP DUP1 DUP7 AND DUP5 OR SWAP3 POP POP POP SWAP4 SWAP3 POP POP POP JUMP JUMPDEST PUSH1 0x0 DUP2 SWAP1 POP SWAP2 SWAP1 POP JUMP JUMPDEST PUSH1 0x0 PUSH2 0x191B PUSH2 0x1916 PUSH2 0x1911 DUP5 PUSH2 0xEEB JUMP JUMPDEST PUSH2 0x18F6 JUMP JUMPDEST PUSH2 0xEEB JUMP JUMPDEST SWAP1 POP SWAP2 SWAP1 POP JUMP JUMPDEST PUSH1 0x0 DUP2 SWAP1 POP SWAP2 SWAP1 POP JUMP JUMPDEST PUSH2 0x1935 DUP4 PUSH2 0x1900 JUMP JUMPDEST PUSH2 0x1949 PUSH2 0x1941 DUP3 PUSH2 0x1922 JUMP JUMPDEST DUP5 DUP5 SLOAD PUSH2 0x18A4 JUMP JUMPDEST DUP3 SSTORE POP POP POP POP JUMP JUMPDEST PUSH1 0x0 SWAP1 JUMP JUMPDEST PUSH2 0x195E PUSH2 0x1951 JUMP JUMPDEST PUSH2 0x1969 DUP2 DUP5 DUP5 PUSH2 0x192C JUMP JUMPDEST POP POP POP JUMP JUMPDEST JUMPDEST DUP2 DUP2 LT ISZERO PUSH2 0x198D JUMPI PUSH2 0x1982 PUSH1 0x0 DUP3 PUSH2 0x1956 JUMP JUMPDEST PUSH1 0x1 DUP2 ADD SWAP1 POP PUSH2 0x196F JUMP JUMPDEST POP POP JUMP JUMPDEST PUSH1 0x1F DUP3 GT ISZERO PUSH2 0x19D2 JUMPI PUSH2 0x19A3 DUP2 PUSH2 0x1872 JUMP JUMPDEST PUSH2 0x19AC DUP5 PUSH2 0x1887 JUMP JUMPDEST DUP2 ADD PUSH1 0x20 DUP6 LT ISZERO PUSH2 0x19BB JUMPI DUP2 SWAP1 POP JUMPDEST PUSH2 0x19CF PUSH2 0x19C7 DUP6 PUSH2 0x1887 JUMP JUMPDEST DUP4 ADD DUP3 PUSH2 0x196E JUMP JUMPDEST POP POP JUMPDEST POP POP POP JUMP JUMPDEST PUSH1 0x0 DUP3 DUP3 SHR SWAP1 POP SWAP3 SWAP2 POP POP JUMP JUMPDEST PUSH1 0x0 PUSH2 0x19F5 PUSH1 0x0 NOT DUP5 PUSH1 0x8 MUL PUSH2 0x19D7 JUMP JUMPDEST NOT DUP1 DUP4 AND SWAP2 POP POP SWAP3 SWAP2 POP POP JUMP JUMPDEST PUSH1 0x0 PUSH2 0x1A0E DUP4 DUP4 PUSH2 0x19E4 JUMP JUMPDEST SWAP2 POP DUP3 PUSH1 0x2 MUL DUP3 OR SWAP1 POP SWAP3 SWAP2 POP POP JUMP JUMPDEST PUSH2 0x1A27 DUP3 PUSH2 0xF67 JUMP JUMPDEST PUSH8 0xFFFFFFFFFFFFFFFF DUP2 GT ISZERO PUSH2 0x1A40 JUMPI PUSH2 0x1A3F PUSH2 0x1843 JUMP JUMPDEST JUMPDEST PUSH2 0x1A4A DUP3 SLOAD PUSH2 0x14A7 JUMP JUMPDEST PUSH2 0x1A55 DUP3 DUP3 DUP6 PUSH2 0x1991 JUMP JUMPDEST PUSH1 0x0 PUSH1 0x20 SWAP1 POP PUSH1 0x1F DUP4 GT PUSH1 0x1 DUP2 EQ PUSH2 0x1A88 JUMPI PUSH1 0x0 DUP5 ISZERO PUSH2 0x1A76 JUMPI DUP3 DUP8 ADD MLOAD SWAP1 POP JUMPDEST PUSH2 0x1A80 DUP6 DUP3 PUSH2 0x1A02 JUMP JUMPDEST DUP7 SSTORE POP PUSH2 0x1AE8 JUMP JUMPDEST PUSH1 0x1F NOT DUP5 AND PUSH2 0x1A96 DUP7 PUSH2 0x1872 JUMP JUMPDEST PUSH1 0x0 JUMPDEST DUP3 DUP2 LT ISZERO PUSH2 0x1ABE JUMPI DUP5 DUP10 ADD MLOAD DUP3 SSTORE PUSH1 0x1 DUP3 ADD SWAP2 POP PUSH1 0x20 DUP6 ADD SWAP5 POP PUSH1 0x20 DUP2 ADD SWAP1 POP PUSH2 0x1A99 JUMP JUMPDEST DUP7 DUP4 LT ISZERO PUSH2 0x1ADB JUMPI DUP5 DUP10 ADD MLOAD PUSH2 0x1AD7 PUSH1 0x1F DUP10 AND DUP3 PUSH2 0x19E4 JUMP JUMPDEST DUP4 SSTORE POP JUMPDEST PUSH1 0x1 PUSH1 0x2 DUP9 MUL ADD DUP9 SSTORE POP POP POP JUMPDEST POP POP POP POP POP POP JUMP JUMPDEST DUP3 DUP2 DUP4 CALLDATACOPY PUSH1 0x0 DUP4 DUP4 ADD MSTORE POP POP POP JUMP JUMPDEST PUSH1 0x0 PUSH2 0x1B0B DUP4 DUP6 PUSH2 0xF72 JUMP JUMPDEST SWAP4 POP PUSH2 0x1B18 DUP4 DUP6 DUP5 PUSH2 0x1AF0 JUMP JUMPDEST PUSH2 0x1B21 DUP4 PUSH2 0xFAD JUMP JUMPDEST DUP5 ADD SWAP1 POP SWAP4 SWAP3 POP POP POP JUMP JUMPDEST PUSH1 0x0 PUSH1 0x40 DUP3 ADD SWAP1 POP DUP2 DUP2 SUB PUSH1 0x0 DUP4 ADD MSTORE PUSH2 0x1B47 DUP2 DUP6 DUP8 PUSH2 0x1AFF JUMP JUMPDEST SWAP1 POP PUSH2 0x1B56 PUSH1 0x20 DUP4 ADD DUP5 PUSH2 0xFF7 JUMP JUMPDEST SWAP5 SWAP4 POP POP POP POP JUMP JUMPDEST PUSH1 0x0 PUSH1 0x40 DUP3 ADD SWAP1 POP DUP2 DUP2 SUB PUSH1 0x0 DUP4 ADD MSTORE PUSH2 0x1B79 DUP2 DUP7 DUP9 PUSH2 0x1AFF JUMP JUMPDEST SWAP1 POP DUP2 DUP2 SUB PUSH1 0x20 DUP4 ADD MSTORE PUSH2 0x1B8E DUP2 DUP5 DUP7 PUSH2 0x1AFF JUMP JUMPDEST SWAP1 POP SWAP6 SWAP5 POP POP POP POP POP JUMP JUMPDEST PUSH1 0x0 PUSH1 0x80 DUP3 ADD SWAP1 POP PUSH2 0x1BAE PUSH1 0x0 DUP4 ADD DUP11 PUSH2 0xF58 JUMP JUMPDEST DUP2 DUP2 SUB PUSH1 0x20 DUP4 ADD MSTORE PUSH2 0x1BC1 DUP2 DUP9 DUP11 PUSH2 0x1AFF JUMP JUMPDEST SWAP1 POP DUP2 DUP2 SUB PUSH1 0x40 DUP4 ADD MSTORE PUSH2 0x1BD6 DUP2 DUP7 DUP9 PUSH2 0x1AFF JUMP JUMPDEST SWAP1 POP DUP2 DUP2 SUB PUSH1 0x60 DUP4 ADD MSTORE PUSH2 0x1BEB DUP2 DUP5 DUP7 PUSH2 0x1AFF JUMP JUMPDEST SWAP1 POP SWAP9 SWAP8 POP POP POP POP POP POP POP POP JUMP INVALID LOG2 PUSH5 0x6970667358 0x22 SLT KECCAK256 SWAP16 ADDRESS DUP1 0xCF CALLDATASIZE 0xB1 0xD9 SWAP4 BALANCE DUP7 EQ SSTORE DUP5 LOG2 SWAP5 LOG4 RETURN JUMPDEST PUSH6 0xDE87E40EF296 0xE4 PUSH27 0x90C544570464736F6C634300081400330000000000000000000000 "},"methodIdentifiers":{"DONE()":"0bbe62e4","IN_PROGRESS()":"600f150c","NOT_SURE()":"f3aaad30","NOT_VISIBLE()":"549cde05","PARTIALLY_DONE()":"1d868dcc","addEvidence(uint256,string,string)":"a4f56830","addPromise(bytes32,string,string,string)":"c605ff98","castVote(uint256,uint8)":"56781388","closeRound(uint256)":"88e01a98","hasVoted(uint256,address)":"43859632","nextPromiseId()":"90828c78","nextReviewRoundId()":"c8a33da1","openReviewRound(uint256,string,uint256)":"73e3ad5a","promises(uint256)":"1f06c859","reviewRounds(uint256)":"a94ad314","updateStatus(uint256,uint8)":"3a1b3d31","voteCounts(uint256,uint8)":"c83a09c0"}}}}}