{
  "_format": "hh-sol-artifact-1",
  "contractName": "PromisePulse",
  "sourceName": "contracts/PromisePulse.sol",
  "abi": [
    {
      "anonymous": false,
      "inputs": [
        {
          "indexed": true,
          "internalType": "uint256",
          "name": "promiseId",
          "type": "uint256"
        },
        {
          "indexed": false,
          "internalType": "string",
          "name": "evidenceCid",
          "type": "string"
        },
        {
          "indexed": false,
          "internalType": "string",
          "name": "evidenceType",
          "type": "string"
        }
      ],
      "name": "EvidenceLinked",
      "type": "event"
    },
    {
      "anonymous": false,
      "inputs": [
        {
          "indexed": true,
          "internalType": "uint256",
          "name": "promiseId",
          "type": "uint256"
        },
        {
          "indexed": false,
          "internalType": "bytes32",
          "name": "promiseHash",
          "type": "bytes32"
        },
        {
          "indexed": false,
          "internalType": "string",
          "name": "category",
          "type": "string"
        },
        {
          "indexed": false,
          "internalType": "string",
          "name": "region",
          "type": "string"
        },
        {
          "indexed": false,
          "internalType": "string",
          "name": "sourceCid",
          "type": "string"
        }
      ],
      "name": "PromiseRecorded",
      "type": "event"
    },
    {
      "anonymous": false,
      "inputs": [
        {
          "indexed": true,
          "internalType": "uint256",
          "name": "reviewRoundId",
          "type": "uint256"
        },
        {
          "indexed": true,
          "internalType": "uint256",
          "name": "promiseId",
          "type": "uint256"
        },
        {
          "indexed": false,
          "internalType": "string",
          "name": "triggerCid",
          "type": "string"
        },
        {
          "indexed": false,
          "internalType": "uint256",
          "name": "endTime",
          "type": "uint256"
        }
      ],
      "name": "ReviewRoundOpened",
      "type": "event"
    },
    {
      "anonymous": false,
      "inputs": [
        {
          "indexed": true,
          "internalType": "uint256",
          "name": "promiseId",
          "type": "uint256"
        },
        {
          "indexed": false,
          "internalType": "uint8",
          "name": "status",
          "type": "uint8"
        }
      ],
      "name": "StatusUpdated",
      "type": "event"
    },
    {
      "anonymous": false,
      "inputs": [
        {
          "indexed": true,
          "internalType": "uint256",
          "name": "reviewRoundId",
          "type": "uint256"
        },
        {
          "indexed": true,
          "internalType": "address",
          "name": "voter",
          "type": "address"
        },
        {
          "indexed": false,
          "internalType": "uint8",
          "name": "voteOption",
          "type": "uint8"
        }
      ],
      "name": "VoteCast",
      "type": "event"
    },
    {
      "inputs": [],
      "name": "DONE",
      "outputs": [
        {
          "internalType": "uint8",
          "name": "",
          "type": "uint8"
        }
      ],
      "stateMutability": "view",
      "type": "function"
    },
    {
      "inputs": [],
      "name": "IN_PROGRESS",
      "outputs": [
        {
          "internalType": "uint8",
          "name": "",
          "type": "uint8"
        }
      ],
      "stateMutability": "view",
      "type": "function"
    },
    {
      "inputs": [],
      "name": "NOT_SURE",
      "outputs": [
        {
          "internalType": "uint8",
          "name": "",
          "type": "uint8"
        }
      ],
      "stateMutability": "view",
      "type": "function"
    },
    {
      "inputs": [],
      "name": "NOT_VISIBLE",
      "outputs": [
        {
          "internalType": "uint8",
          "name": "",
          "type": "uint8"
        }
      ],
      "stateMutability": "view",
      "type": "function"
    },
    {
      "inputs": [],
      "name": "PARTIALLY_DONE",
      "outputs": [
        {
          "internalType": "uint8",
          "name": "",
          "type": "uint8"
        }
      ],
      "stateMutability": "view",
      "type": "function"
    },
    {
      "inputs": [
        {
          "internalType": "uint256",
          "name": "promiseId",
          "type": "uint256"
        },
        {
          "internalType": "string",
          "name": "evidenceCid",
          "type": "string"
        },
        {
          "internalType": "string",
          "name": "evidenceType",
          "type": "string"
        }
      ],
      "name": "addEvidence",
      "outputs": [],
      "stateMutability": "nonpayable",
      "type": "function"
    },
    {
      "inputs": [
        {
          "internalType": "bytes32",
          "name": "promiseHash",
          "type": "bytes32"
        },
        {
          "internalType": "string",
          "name": "category",
          "type": "string"
        },
        {
          "internalType": "string",
          "name": "region",
          "type": "string"
        },
        {
          "internalType": "string",
          "name": "sourceCid",
          "type": "string"
        }
      ],
      "name": "addPromise",
      "outputs": [
        {
          "internalType": "uint256",
          "name": "",
          "type": "uint256"
        }
      ],
      "stateMutability": "nonpayable",
      "type": "function"
    },
    {
      "inputs": [
        {
          "internalType": "uint256",
          "name": "reviewRoundId",
          "type": "uint256"
        },
        {
          "internalType": "uint8",
          "name": "voteOption",
          "type": "uint8"
        }
      ],
      "name": "castVote",
      "outputs": [],
      "stateMutability": "nonpayable",
      "type": "function"
    },
    {
      "inputs": [
        {
          "internalType": "uint256",
          "name": "reviewRoundId",
          "type": "uint256"
        }
      ],
      "name": "closeRound",
      "outputs": [],
      "stateMutability": "nonpayable",
      "type": "function"
    },
    {
      "inputs": [
        {
          "internalType": "uint256",
          "name": "",
          "type": "uint256"
        },
        {
          "internalType": "address",
          "name": "",
          "type": "address"
        }
      ],
      "name": "hasVoted",
      "outputs": [
        {
          "internalType": "bool",
          "name": "",
          "type": "bool"
        }
      ],
      "stateMutability": "view",
      "type": "function"
    },
    {
      "inputs": [],
      "name": "nextPromiseId",
      "outputs": [
        {
          "internalType": "uint256",
          "name": "",
          "type": "uint256"
        }
      ],
      "stateMutability": "view",
      "type": "function"
    },
    {
      "inputs": [],
      "name": "nextReviewRoundId",
      "outputs": [
        {
          "internalType": "uint256",
          "name": "",
          "type": "uint256"
        }
      ],
      "stateMutability": "view",
      "type": "function"
    },
    {
      "inputs": [
        {
          "internalType": "uint256",
          "name": "promiseId",
          "type": "uint256"
        },
        {
          "internalType": "string",
          "name": "triggerCid",
          "type": "string"
        },
        {
          "internalType": "uint256",
          "name": "endTime",
          "type": "uint256"
        }
      ],
      "name": "openReviewRound",
      "outputs": [
        {
          "internalType": "uint256",
          "name": "",
          "type": "uint256"
        }
      ],
      "stateMutability": "nonpayable",
      "type": "function"
    },
    {
      "inputs": [
        {
          "internalType": "uint256",
          "name": "",
          "type": "uint256"
        }
      ],
      "name": "promises",
      "outputs": [
        {
          "internalType": "bytes32",
          "name": "promiseHash",
          "type": "bytes32"
        },
        {
          "internalType": "string",
          "name": "category",
          "type": "string"
        },
        {
          "internalType": "string",
          "name": "region",
          "type": "string"
        },
        {
          "internalType": "string",
          "name": "sourceCid",
          "type": "string"
        },
        {
          "internalType": "uint256",
          "name": "createdAt",
          "type": "uint256"
        }
      ],
      "stateMutability": "view",
      "type": "function"
    },
    {
      "inputs": [
        {
          "internalType": "uint256",
          "name": "",
          "type": "uint256"
        }
      ],
      "name": "reviewRounds",
      "outputs": [
        {
          "internalType": "uint256",
          "name": "promiseId",
          "type": "uint256"
        },
        {
          "internalType": "string",
          "name": "triggerCid",
          "type": "string"
        },
        {
          "internalType": "uint256",
          "name": "endTime",
          "type": "uint256"
        },
        {
          "internalType": "bool",
          "name": "isOpen",
          "type": "bool"
        }
      ],
      "stateMutability": "view",
      "type": "function"
    },
    {
      "inputs": [
        {
          "internalType": "uint256",
          "name": "promiseId",
          "type": "uint256"
        },
        {
          "internalType": "uint8",
          "name": "status",
          "type": "uint8"
        }
      ],
      "name": "updateStatus",
      "outputs": [],
      "stateMutability": "nonpayable",
      "type": "function"
    },
    {
      "inputs": [
        {
          "internalType": "uint256",
          "name": "",
          "type": "uint256"
        },
        {
          "internalType": "uint8",
          "name": "",
          "type": "uint8"
        }
      ],
      "name": "voteCounts",
      "outputs": [
        {
          "internalType": "uint256",
          "name": "",
          "type": "uint256"
        }
      ],
      "stateMutability": "view",
      "type": "function"
    }
  ],
  "bytecode": "0x608060405260016000556001805534801561001957600080fd5b50611c2f806100296000396000f3fe608060405234801561001057600080fd5b506004361061010b5760003560e01c806373e3ad5a116100a2578063a94ad31411610071578063a94ad314146102aa578063c605ff98146102dd578063c83a09c01461030d578063c8a33da11461033d578063f3aaad301461035b5761010b565b806373e3ad5a1461022457806388e01a981461025457806390828c7814610270578063a4f568301461028e5761010b565b806343859632116100de578063438596321461019c578063549cde05146101cc57806356781388146101ea578063600f150c146102065761010b565b80630bbe62e4146101105780631d868dcc1461012e5780631f06c8591461014c5780633a1b3d3114610180575b600080fd5b610118610379565b6040516101259190610ec6565b60405180910390f35b61013661037e565b6040516101439190610ec6565b60405180910390f35b61016660048036038101906101619190610f21565b610383565b604051610177959493929190611006565b60405180910390f35b61019a6004803603810190610195919061109a565b610551565b005b6101b660048036038101906101b19190611138565b610634565b6040516101c39190611193565b60405180910390f35b6101d4610663565b6040516101e19190610ec6565b60405180910390f35b61020460048036038101906101ff919061109a565b610668565b005b61020e610949565b60405161021b9190610ec6565b60405180910390f35b61023e60048036038101906102399190611213565b61094e565b60405161024b9190611287565b60405180910390f35b61026e60048036038101906102699190610f21565b610acb565b005b610278610b4d565b6040516102859190611287565b60405180910390f35b6102a860048036038101906102a391906112a2565b610b53565b005b6102c460048036038101906102bf9190610f21565b610be8565b6040516102d49493929190611337565b60405180910390f35b6102f760048036038101906102f291906113af565b610cad565b6040516103049190611287565b60405180910390f35b6103276004803603810190610322919061109a565b610e7a565b6040516103349190611287565b60405180910390f35b610345610e9f565b6040516103529190611287565b60405180910390f35b610363610ea5565b6040516103709190610ec6565b60405180910390f35b600381565b600281565b60026020528060005260406000206000915090508060000154908060010180546103ac906114a7565b80601f01602080910402602001604051908101604052809291908181526020018280546103d8906114a7565b80156104255780601f106103fa57610100808354040283529160200191610425565b820191906000526020600020905b81548152906001019060200180831161040857829003601f168201915b50505050509080600201805461043a906114a7565b80601f0160208091040260200160405190810160405280929190818152602001828054610466906114a7565b80156104b35780601f10610488576101008083540402835291602001916104b3565b820191906000526020600020905b81548152906001019060200180831161049657829003601f168201915b5050505050908060030180546104c8906114a7565b80601f01602080910402602001604051908101604052809291908181526020018280546104f4906114a7565b80156105415780601f1061051657610100808354040283529160200191610541565b820191906000526020600020905b81548152906001019060200180831161052457829003601f168201915b5050505050908060040154905085565b600082118015610562575060005482105b6105a1576040517f08c379a000000000000000000000000000000000000000000000000000000000815260040161059890611524565b60405180910390fd5b60008160ff16101580156105b9575060048160ff1611155b6105f8576040517f08c379a00000000000000000000000000000000000000000000000000000000081526004016105ef90611590565b60405180910390fd5b817f2da7b23ca63c1eb969eee5fae4acb98186abecf5358b0354a82a5183ebca6b2a826040516106289190610ec6565b60405180910390a25050565b60056020528160005260406000206020528060005260406000206000915091509054906101000a900460ff1681565b600081565b600082118015610679575060015482105b6106b8576040517f08c379a00000000000000000000000000000000000000000000000000000000081526004016106af906115fc565b60405180910390fd5b60006003600084815260200190815260200160002090508060030160009054906101000a900460ff16610720576040517f08c379a000000000000000000000000000000000000000000000000000000000815260040161071790611668565b60405180910390fd5b8060020154421115610767576040517f08c379a000000000000000000000000000000000000000000000000000000000815260040161075e906116d4565b60405180910390fd5b60048260ff1611156107ae576040517f08c379a00000000000000000000000000000000000000000000000000000000081526004016107a590611740565b60405180910390fd5b6005600084815260200190815260200160002060003373ffffffffffffffffffffffffffffffffffffffff1673ffffffffffffffffffffffffffffffffffffffff16815260200190815260200160002060009054906101000a900460ff161561084c576040517f08c379a0000000000000000000000000000000000000000000000000000000008152600401610843906117ac565b60405180910390fd5b60016005600085815260200190815260200160002060003373ffffffffffffffffffffffffffffffffffffffff1673ffffffffffffffffffffffffffffffffffffffff16815260200190815260200160002060006101000a81548160ff0219169083151502179055506004600084815260200190815260200160002060008360ff1660ff16815260200190815260200160002060008154809291906108f0906117fb565b91905055503373ffffffffffffffffffffffffffffffffffffffff16837feba4866100b822f0f391e610e7edfab790b9e8766c0012733c26b2f1858e8dd78460405161093c9190610ec6565b60405180910390a3505050565b600181565b60008085118015610960575060005485105b61099f576040517f08c379a000000000000000000000000000000000000000000000000000000000815260040161099690611524565b60405180910390fd5b6000600160008154809291906109b4906117fb565b919050559050604051806080016040528087815260200186868080601f016020809104026020016040519081016040528093929190818152602001838380828437600081840152601f19601f8201169050808301925050505050505081526020018481526020016001151581525060036000838152602001908152602001600020600082015181600001556020820151816001019081610a549190611a1e565b506040820151816002015560608201518160030160006101000a81548160ff02191690831515021790555090505085817fb54b34c83ec6d2e03a59c92f0e87c8dca8c17483de7caf76545917d0d5660c28878787604051610ab793929190611b2c565b60405180910390a380915050949350505050565b600081118015610adc575060015481105b610b1b576040517f08c379a0000000000000000000000000000000000000000000000000000000008152600401610b12906115fc565b60405180910390fd5b60006003600083815260200190815260200160002060030160006101000a81548160ff02191690831515021790555050565b60005481565b600085118015610b64575060005485105b610ba3576040517f08c379a0000000000000000000000000000000000000000000000000000000008152600401610b9a90611524565b60405180910390fd5b847fb92c612969b442f1471a1dff544c3bcbddbe444e889beac5f62732d372ad81db85858585604051610bd99493929190611b5e565b60405180910390a25050505050565b6003602052806000526040600020600091509050806000015490806001018054610c11906114a7565b80601f0160208091040260200160405190810160405280929190818152602001828054610c3d906114a7565b8015610c8a5780601f10610c5f57610100808354040283529160200191610c8a565b820191906000526020600020905b815481529060010190602001808311610c6d57829003601f168201915b5050505050908060020154908060030160009054906101000a900460ff16905084565b600080600080815480929190610cc2906117fb565b9190505590506040518060a001604052808a815260200189898080601f016020809104026020016040519081016040528093929190818152602001838380828437600081840152601f19601f82011690508083019250505050505050815260200187878080601f016020809104026020016040519081016040528093929190818152602001838380828437600081840152601f19601f82011690508083019250505050505050815260200185858080601f016020809104026020016040519081016040528093929190818152602001838380828437600081840152601f19601f8201169050808301925050505050505081526020014281525060026000838152602001908152602001600020600082015181600001556020820151816001019081610ded9190611a1e565b506040820151816002019081610e039190611a1e565b506060820151816003019081610e199190611a1e565b5060808201518160040155905050807f949784da28e3f5675592f9c6bd64128cabb3a065beec7dfa21f49400f320ad3e8a8a8a8a8a8a8a604051610e639796959493929190611b99565b60405180910390a280915050979650505050505050565b6004602052816000526040600020602052806000526040600020600091509150505481565b60015481565b600481565b600060ff82169050919050565b610ec081610eaa565b82525050565b6000602082019050610edb6000830184610eb7565b92915050565b600080fd5b600080fd5b6000819050919050565b610efe81610eeb565b8114610f0957600080fd5b50565b600081359050610f1b81610ef5565b92915050565b600060208284031215610f3757610f36610ee1565b5b6000610f4584828501610f0c565b91505092915050565b6000819050919050565b610f6181610f4e565b82525050565b600081519050919050565b600082825260208201905092915050565b60005b83811015610fa1578082015181840152602081019050610f86565b60008484015250505050565b6000601f19601f8301169050919050565b6000610fc982610f67565b610fd38185610f72565b9350610fe3818560208601610f83565b610fec81610fad565b840191505092915050565b61100081610eeb565b82525050565b600060a08201905061101b6000830188610f58565b818103602083015261102d8187610fbe565b905081810360408301526110418186610fbe565b905081810360608301526110558185610fbe565b90506110646080830184610ff7565b9695505050505050565b61107781610eaa565b811461108257600080fd5b50565b6000813590506110948161106e565b92915050565b600080604083850312156110b1576110b0610ee1565b5b60006110bf85828601610f0c565b92505060206110d085828601611085565b9150509250929050565b600073ffffffffffffffffffffffffffffffffffffffff82169050919050565b6000611105826110da565b9050919050565b611115816110fa565b811461112057600080fd5b50565b6000813590506111328161110c565b92915050565b6000806040838503121561114f5761114e610ee1565b5b600061115d85828601610f0c565b925050602061116e85828601611123565b9150509250929050565b60008115159050919050565b61118d81611178565b82525050565b60006020820190506111a86000830184611184565b92915050565b600080fd5b600080fd5b600080fd5b60008083601f8401126111d3576111d26111ae565b5b8235905067ffffffffffffffff8111156111f0576111ef6111b3565b5b60208301915083600182028301111561120c5761120b6111b8565b5b9250929050565b6000806000806060858703121561122d5761122c610ee1565b5b600061123b87828801610f0c565b945050602085013567ffffffffffffffff81111561125c5761125b610ee6565b5b611268878288016111bd565b9350935050604061127b87828801610f0c565b91505092959194509250565b600060208201905061129c6000830184610ff7565b92915050565b6000806000806000606086880312156112be576112bd610ee1565b5b60006112cc88828901610f0c565b955050602086013567ffffffffffffffff8111156112ed576112ec610ee6565b5b6112f9888289016111bd565b9450945050604086013567ffffffffffffffff81111561131c5761131b610ee6565b5b611328888289016111bd565b92509250509295509295909350565b600060808201905061134c6000830187610ff7565b818103602083015261135e8186610fbe565b905061136d6040830185610ff7565b61137a6060830184611184565b95945050505050565b61138c81610f4e565b811461139757600080fd5b50565b6000813590506113a981611383565b92915050565b60008060008060008060006080888a0312156113ce576113cd610ee1565b5b60006113dc8a828b0161139a565b975050602088013567ffffffffffffffff8111156113fd576113fc610ee6565b5b6114098a828b016111bd565b9650965050604088013567ffffffffffffffff81111561142c5761142b610ee6565b5b6114388a828b016111bd565b9450945050606088013567ffffffffffffffff81111561145b5761145a610ee6565b5b6114678a828b016111bd565b925092505092959891949750929550565b7f4e487b7100000000000000000000000000000000000000000000000000000000600052602260045260246000fd5b600060028204905060018216806114bf57607f821691505b6020821081036114d2576114d1611478565b5b50919050565b7f496e76616c69642070726f6d6973650000000000000000000000000000000000600082015250565b600061150e600f83610f72565b9150611519826114d8565b602082019050919050565b6000602082019050818103600083015261153d81611501565b9050919050565b7f496e76616c696420737461747573000000000000000000000000000000000000600082015250565b600061157a600e83610f72565b915061158582611544565b602082019050919050565b600060208201905081810360008301526115a98161156d565b9050919050565b7f496e76616c696420726f756e6400000000000000000000000000000000000000600082015250565b60006115e6600d83610f72565b91506115f1826115b0565b602082019050919050565b60006020820190508181036000830152611615816115d9565b9050919050565b7f526f756e6420636c6f7365640000000000000000000000000000000000000000600082015250565b6000611652600c83610f72565b915061165d8261161c565b602082019050919050565b6000602082019050818103600083015261168181611645565b9050919050565b7f526f756e64206578706972656400000000000000000000000000000000000000600082015250565b60006116be600d83610f72565b91506116c982611688565b602082019050919050565b600060208201905081810360008301526116ed816116b1565b9050919050565b7f496e76616c696420766f7465206f7074696f6e00000000000000000000000000600082015250565b600061172a601383610f72565b9150611735826116f4565b602082019050919050565b600060208201905081810360008301526117598161171d565b9050919050565b7f416c726561647920766f74656400000000000000000000000000000000000000600082015250565b6000611796600d83610f72565b91506117a182611760565b602082019050919050565b600060208201905081810360008301526117c581611789565b9050919050565b7f4e487b7100000000000000000000000000000000000000000000000000000000600052601160045260246000fd5b600061180682610eeb565b91507fffffffffffffffffffffffffffffffffffffffffffffffffffffffffffffffff8203611838576118376117cc565b5b600182019050919050565b7f4e487b7100000000000000000000000000000000000000000000000000000000600052604160045260246000fd5b60008190508160005260206000209050919050565b60006020601f8301049050919050565b600082821b905092915050565b6000600883026118d47fffffffffffffffffffffffffffffffffffffffffffffffffffffffffffffffff82611897565b6118de8683611897565b95508019841693508086168417925050509392505050565b6000819050919050565b600061191b61191661191184610eeb565b6118f6565b610eeb565b9050919050565b6000819050919050565b61193583611900565b61194961194182611922565b8484546118a4565b825550505050565b600090565b61195e611951565b61196981848461192c565b505050565b5b8181101561198d57611982600082611956565b60018101905061196f565b5050565b601f8211156119d2576119a381611872565b6119ac84611887565b810160208510156119bb578190505b6119cf6119c785611887565b83018261196e565b50505b505050565b600082821c905092915050565b60006119f5600019846008026119d7565b1980831691505092915050565b6000611a0e83836119e4565b9150826002028217905092915050565b611a2782610f67565b67ffffffffffffffff811115611a4057611a3f611843565b5b611a4a82546114a7565b611a55828285611991565b600060209050601f831160018114611a885760008415611a76578287015190505b611a808582611a02565b865550611ae8565b601f198416611a9686611872565b60005b82811015611abe57848901518255600182019150602085019450602081019050611a99565b86831015611adb5784890151611ad7601f8916826119e4565b8355505b6001600288020188555050505b505050505050565b82818337600083830152505050565b6000611b0b8385610f72565b9350611b18838584611af0565b611b2183610fad565b840190509392505050565b60006040820190508181036000830152611b47818587611aff565b9050611b566020830184610ff7565b949350505050565b60006040820190508181036000830152611b79818688611aff565b90508181036020830152611b8e818486611aff565b905095945050505050565b6000608082019050611bae600083018a610f58565b8181036020830152611bc181888a611aff565b90508181036040830152611bd6818688611aff565b90508181036060830152611beb818486611aff565b90509897505050505050505056fea26469706673582212209f3080cf36b1d9933186145584a294a4f35b65de87e40ef296e47a90c544570464736f6c63430008140033",
  "linkReferences": {},
  "deployedLinkReferences": {}
}